:020000040800F2
:10000000400700209D0100085D23000855230008DB
:100010005923000811030008352F000800000000D4
:100020000000000000000000000000001D26000885
:1000300015030008000000006123000821260008C5
:10004000B7010008B7010008B7010008B7010008B0
:10005000B7010008B7010008B7010008B7010008A0
:10006000B7010008B7010008B7010008B701000890
:10007000B7010008B7010008B7010008B701000880
:10008000B7010008B7010008B7010008B701000870
:10009000B7010008B7010008B7010008B701000860
:1000A000B7010008B7010008B7010008B701000850
:1000B000B7010008B701000879260008B701000859
:1000C000B7010008B7010008B7010008B701000830
:1000D000B7010008B7010008B7010008B701000820
:1000E000B7010008B7010008B7010008B701000810
:1000F000B7010008B7010008B7010008B701000800
:10010000B7010008B7010008B7010008B7010008EF
:10011000B7010008B7010008B7010008B7010008DF
:10012000B7010008B7010008B7010008B7010008CF
:10013000B7010008B7010008B7010008B7010008BF
:10014000B7010008B7010008B7010008B7010008AF
:10015000B7010008B7010008B7010008B70100089F
:10016000B7010008B7010008B7010008B70100088F
:10017000B7010008B7010008B7010008000000003F
:10018000B7010008B7010008DFF80CD000F07EF8D6
:1001900000480047392F00084007002006488047E4
:1001A00006480047FEE7FEE7FEE7FEE7FEE7FEE75C
:1001B000FEE7FEE7FEE7FEE72526000889010008C6
:1001C0002DE9F05F0546002092469B46884606468C
:1001D000814640241BE0284641464746224600F01F
:1001E00044F853465A46C01A914110D31146184656
:1001F000224600F02BF82D1A67EB01084F462246E5
:100200000120002100F022F817EB00094E41201ECA
:10021000A4F10104DFDC484631462A46434600F09B
:1002200000B830BCBDE8C09FD2B201E000F8012B9D
:10023000491EFBD270470022F6E710B513460A4666
:1002400004461946FFF7F0FF204610BD202A04DBC4
:10025000203A00FA02F1002070479140C2F12003D9
:1002600020FA03F3194390407047202A04DB203A18
:1002700021FA02F00021704721FA02F3D040C2F1C6
:10028000200291400843194670470000064C074D74
:1002900006E0E06840F0010394E807009847103456
:1002A000AC42F6D3FFF774FF88320008A83200088A
:1002B00070B58D1810F8014B14F0030201D110F83D
:1002C000012B231106D110F8013B03E010F8016B5C
:1002D00001F8016B521EF9D1ABB110F8012B04F0FB
:1002E0000C048A1A0C2C03D0A2EB84129B1C08E08D
:1002F00010F8014BA2EB0422F8E712F8014B01F8C9
:10030000014B5B1EF9D5A942D4D3002070BD00007B
:10031000FEE7000070470000B0B5044600F0FAF8B0
:10032000054640F20000C2F200004068611C18BFA0
:10033000044400BF00F0EEF8401BA042FAD3B0BD69
:100340002DE9F04F82B00E68002E00F0D78041F604
:10035000000500F13842C4F60005072340F2004AC8
:100360004FEAB227A84208BF0623C4F2010A062FAB
:1003700038BF4FEAB2234FF0010B002500270122BE
:10038000009309E00E68043736FA02F302F1010225
:1003900005F1020500F0B280A2F1010C0BFA0CF499
:1003A00016EA0408EED0D1F80490B9F1120F16D86D
:1003B0000BFA09F616F0061F11D0D0F808E0032357
:1003C000CE68AB402EEA0303AE40334383604368FC
:1003D0004FEA1916A34306FA0CF63343436009F0BB
:1003E0000306032E07D1C36AA343C9F3C00404FA6A
:1003F0000CF42343C3620324C36804FA05FE8C682B
:1004000023EA0E03AC40234349F01004122CC360CE
:1004100018D16FF0030303EA5C030344D3F8209080
:1004200007F01C060F24D1F810B0B44029EA0404E8
:100430000BFA06F634431C62D1F804904FF0010B1E
:1004400009F0030603686FEA0E042340AE4033430D
:100450005FEAC906036095D541F26006C4F2020660
:1004600033684FF6084E43F0010333603368CFF62C
:10047000FF7E03F001030193019B2CF0030353441F
:1004800053F80EC007F00C040F26A6402CEA060C09
:10049000009E06FA04F444EA0C0643F80E60DAF80B
:1004A00000C04E684CEA0804F30358BF2CEA080465
:1004B000CAF80040DAF804C0B3034CEA080458BF95
:1004C0002CEA0804CAF80440DAF808C0F3024CEA3F
:1004D000080458BF2CEA080440F20C4CCAF8084043
:1004E000C4F2010CDCF80030B60243EA080458BF3D
:1004F00023EA0804CCF8004044E700BF02B000F053
:1005000000B830BCBDE8C08F1823002A08BF2823DC
:10051000C150704740F23C30C2F2000000687047A2
:1005200040F2000040F23C31C2F20000C2F2000191
:1005300040680A68104408607047000080B542F2C5
:100540000000C4F20200016841F4807101600320E0
:1005500000F08AF8002000F009F800281CBF0120F4
:1005600080BD00F02BF8002080BD000070B540F287
:100570000006C2F200067168E1B1044640F20800CC
:10058000C2F200004FF47A720068B2FBF1F1B0FBE6
:10059000F1F001F02FF80F2C4FF0010508D838B911
:1005A0004FF0FF3021460022002500F031F8346082
:1005B000284670BD0125284670BD000082B041F27A
:1005C0005800C4F20200816841F001018160816835
:1005D00001F0010101910199016841F08051016030
:1005E000006800F080500090009802B07047000052
:1005F000002848BF704700F01F01012202FA01F1F4
:100600004EF200124009CEF2000242F8201070476C
:1006100010B54EF60C5CCEF2000CDCF80030C3F3E3
:10062000022E8EF00704042C28BF0424BEF103031D
:100630004FF0FF3E0EFA04F438BF0023A143994067
:100640000EFA03F39A4300F00F03043B1143634493
:1006500009010C3300F16042B0F1FF3FC8BF02F561
:100660006443197010BD00004EF60C51CEF200012B
:100670000A684FF6FF031A4060F30A2242F08060D6
:1006800040F0FD700860704747F20001C4F20001BD
:100690000A68B0F5007F02F4C06037D1B0F5007F82
:1006A00031D00868012262F34A20086040F2080055
:1006B000C2F200000068322250434DF68362C4F259
:1006C0001B32A0FB0202900C4A69431C18BF12F4B3
:1006D000806213D04A69002818BF12F480620DD0DE
:1006E0004A69012818BF12F4806207D04A690228BB
:1006F00004D012F48062A0F10400E5D148694005FD
:1007000044BF032070470020704700BFB0F5806FE2
:10071000F9D00868022262F34A200860002070477E
:1007200047F20000C4F20000006800F4C0607047A7
:100730002DE9F04782B00446407841F2880700076F
:10074000C4F2020730D5606E4FEAB05103290BD8CE
:10075000DFE801F002101C25201D002101F002FE3F
:10076000064670B91AE000BF01266078C0060BD5B6
:100770001EE000BF04F12000002101F0ABFE0646A0
:1007800060B16078C00613D4B2464EE057F87C1CC6
:1007900041F4803147F87C1C01E000BF606E39688D
:1007A00021F440010843386000266078C006EBD58C
:1007B000A06E4FEA306003280AD8B246DFE800F0A6
:1007C00002102216201D002101F0CCFD0DE000BF1B
:1007D0004FF0010A4FF00108A07880070DD528E0FE
:1007E00004F12000002101F075FE8246BAF1000FED
:1007F000D04612D0A07880071BD4C2462168C80713
:1008000068D088E057F87C0CB24640F4803047F856
:100810007C0CBAF1000FD046ECD13868A16E20F004
:10082000407008434FF0000A3860B046A078800757
:10083000E3D557F8300C10F080590BD157F8300C35
:1008400040F0805047F8300C57F8300C00F08050E2
:100850000190019847F20005C4F20005286840F4B1
:1008600080702860FFF756FE064600BF2868C00566
:1008700008D4FFF74FFE801B0228F7D94FF0030A78
:1008800022E000BFBAF1000F1ED1B86810F440702A
:1008900012D0D4F8841088420BD0B868B96820F41C
:1008A000407041F48031B960B96821F48031B96099
:1008B000B860C00740F01C81B868D4F8841020F4F8
:1008C00040700843C246B860B9F1000F1AD02168E1
:1008D000C80720D1880726D448072CD4080732D46B
:1008E000C80638D488063ED4880544D448054AD47E
:1008F000480650D4080656D4C8055CD4880462D48F
:1009000073E000BF57F8300C20F0805047F8300CEF
:100910002168C807DED03868A26B20F003001043BE
:1009200038608807D8D53868E26B20F00C00104397
:1009300038604807D2D53868226C20F03000104368
:1009400038600807CCD53868626C20F0C0001043CE
:100950003860C806C6D53868A26C20F440701043D1
:1009600038608806C0D53868E26C20F440601043D7
:1009700038608805BAD53868E26D20F4402010430D
:1009800038604805B4D53868226E20F44010104312
:1009900038604806AED53868226D20F440501043C8
:1009A00038600806A8D53868626D20F440401043CE
:1009B0003860C805A2D53868A26D20F440301043D5
:1009C0003860880411D53A68E06E22F04062024334
:1009D000B0F1806F3A601DD0B0F1006F05D157F8CB
:1009E0007C0C40F4801047F87C0C080326D53A684C
:1009F000206F22F040620243B0F1806F3A6015D060
:100A0000B0F1006F1AD157F87C0C40F4801047F811
:100A10007C0C13E0201D012101F0A4FC21680028BA
:100A200018BF82460803E2D408E000BF201D012160
:100A300001F098FC2168002818BF8246480311D5B0
:100A40003A68606F22F040620243B0F1806F3A6012
:100A50001CD0B0F1006F05D157F87C0C40F4801029
:100A600047F87C0C480425D53968A06F21F0405127
:100A70000143B0F1005F396014D0B0F1805F19D14B
:100A8000201D022101F06EFC11E000BF201D01219C
:100A900001F068FC2168002818BF82464804E3D4AE
:100AA00008E000BF04F12000022101F013FD00283E
:100AB00018BF82462068010406D4C0030CD45046F7
:100AC00002B0BDE8F08700BF3968E26F21F08041D5
:100AD00011433960C003F2D53868D4F8801020F093
:100AE000004008433860504602B0BDE8F08700BFC0
:100AF000FFF710FD064641F288354FF0030A00BFAC
:100B0000B86880073FF5D8AEFFF704FD801BA84208
:100B1000F6D9D9E62DE9F04381B0002855D042F24C
:100B20000009C4F202090446D9F800000D4600F09D
:100B3000070088420CD2D9F8000020F007002843B3
:100B4000C9F80000D9F8000000F00700A8423CD125
:100B5000206841F20808C107C4F2020828D18107C1
:100B600007D5D8F80010A26821F0F0011143C8F8A9
:100B70000010D9F8001001F00701A9420CD9D9F8EA
:100B8000001021F007012943C9F80010D9F800101E
:100B900001F00701A94218D141071BD4000723D453
:100BA000D8F80000D8F8041010F00C002CD131E077
:100BB000606800285ED0022800F07E80032840F0A4
:100BC000818058F8081C890158D4012001B0BDE883
:100BD000F08300BFD8F80010E26821F4E06111430F
:100BE000C8F800100007DBD5D8F80000216920F410
:100BF000605040EAC100C8F80000D8F80000D8F8FA
:100C0000041010F00C0005D00C2829D101F00301CC
:100C1000012925D158F8081C090703D4D8F88C10ED
:100C2000090A02E058F8081C090943F2482201F0B9
:100C30000F01C0F6000252F8211000280A4618BF22
:100C400000220C286FD1D8F8040000F0030002281D
:100C500044D0032804BF41F20021C0F27A0141E0F0
:100C6000042855D0082859D141F20022C0F27A0256
:100C700059E000BF58F8081C8907A6D5D8F800101D
:100C800021F003010843C8F80000FFF743FC0646C3
:100C900041F28837D8F80000616800F00C00B0EB32
:100CA000810F15D0FFF736FC801BB842F2D9032024
:100CB00001B0BDE8F08300BF58F8081C89037FF538
:100CC00084AFDBE758F8081C49057FF57EAFD5E710
:100CD000206881073FF545AF4BE700BF42F2004176
:100CE000C0F2F401D8F80400D8F80420C0F30210D0
:100CF000C2F306225143D8F804200130B1FBF0F0D2
:100D0000C2F34161022202EB4101B0FBF1F20AE0C1
:100D100042F20042C0F2F40205E000BF00220021CE
:100D20000C283FF490AFD8F8000043F22E21C0F316
:100D30000310C0F60001085C00F01F0022FA00F169
:100D400040F20000C2F2000040F208020068C2F265
:100D50000002116001B0BDE8F043FFF707BC0000DE
:100D600040F2080041F20801C2F20000C4F20201A0
:100D70000068096843F23E22C1F30221C0F6000276
:100D8000515C01F01F01C8407047000040F20800AC
:100D900041F20801C2F20000C4F2020100680968D1
:100DA00043F23E22C1F3C221C0F60002515C01F0C1
:100DB0001F01C8407047000041F20C01C4F202015B
:100DC00051F8040C10F00C02086805D00C2A29D147
:100DD00000F00300012825D151F80C0C000703D4C2
:100DE000D1F88800000A02E051F80C0C000943F227
:100DF000482300F00F00C0F6000353F82030002A0B
:100E0000184618BF00200C2A18BF7047086800F069
:100E10000300022810D0032804BF41F20023C0F2CF
:100E20007A030DE0042A1FD0082A23D141F20020C2
:100E3000C0F27A00704700BF42F20043C0F2F403F0
:100E400008680A68C0F30210C2F30622096801307C
:100E50005A43B2FBF0F0C1F34161022202EB4101BF
:100E6000B0FBF1F0704700BF42F20040C0F2F40066
:100E7000704700BF00200023C5E700002DE9F043C4
:100E800083B0002800F0068341F200060446C4F255
:100E90000206B068F168227800F00C09D00601F073
:100EA00003081DD42078C00700F07F80B9F1080F37
:100EB00074D0B9F10C0F08BFB8F1030F6ED06068A1
:100EC000B0F5803F07D0B0F5A02F40F02582306804
:100ED00040F480203060306840F48030306025E29B
:100EE000B9F1000F1CD0B9F10C0F08BFB8F1010F18
:100EF00016D0A1693068002900F0BA8140F00100E5
:100F00003060FFF707FB05463068800700F1C281BB
:100F1000FFF700FB401B02284FF00300F4D920E349
:100F20003068800703D5A069002800F0B382256AE5
:100F30003068000700F11E81D6F89400000900F027
:100F4000F000854200F21C813068B9F1000F40F0DA
:100F500008003060306820F0F00040EA05003060A2
:100F60007068E16920F47F4040EA0120706040F041
:100F70007F82B06DC00000F12782B06D40F08050DC
:100F8000B065B06D00F0805002900298FFF7C8FB8A
:100F9000B16D21F08051B16518E200BF3068800367
:100FA00003D56068002800F07582207880072DD571
:100FB000B9F1040F1CD0B9F10C0F08BFB8F1020F42
:100FC00016D0E1683068002900F0C08140F48070DC
:100FD0003060FFF79FFA0546306840050FD4FFF7F1
:100FE00099FA401B02284FF00300F5D9B9E200BF7F
:100FF0003068400503D5E068002800F04B82706837
:10100000216920F0F85040EA016070602078000704
:101010005ED42078400771D4A06A002800F0E682F0
:10102000022840F0DF80F068E16A00F003028A42A3
:1010300040F0FE80226B6FF00F0300F0700103EBB5
:101040000212914240F0F480616B00F4FE42B2EB78
:10105000012F40F0ED80A16B00F40032073918BF7A
:1010600001218A4240F0E480E26B0023CFF6E07376
:1010700003EB025200F4C0016FF31402914240F0FE
:10108000D780216C4FF07E4202EB016100F0C0601E
:1010900001F07E41884240F0CB803068800100F151
:1010A000A582306840F080703060F06840F0807059
:1010B000F060FFF72FFA04463068800100F1968255
:1010C000FFF728FA001B02284FF00300F4D948E28A
:1010D0006169D6F8940000296ED040F00100C6F88E
:1010E0009400FFF717FA0546D6F89400800790D4CD
:1010F000FFF710FA401B0228F6D909E1B06D10F095
:10110000805808D1B06D40F08050B065B06D00F0EF
:1011100080500090009847F20007C4F2000738683A
:10112000C00513D4386840F480703860FFF7F2F9D6
:10113000054600BF3868C00508D4FFF7EBF9401B2F
:1011400002284FF00300F5D90BE200BFA068012888
:1011500008D0052840F0BE80D6F8900040F004008A
:10116000C6F89000D6F8900040F00100C6F8900054
:10117000BFE000BF306800F0F00085427FF6E4AECB
:10118000B06DC00000F19880B06D40F08050B06547
:10119000B06D00F0805001900198FFF7C1FAB16D79
:1011A00021F08051B165B0F5007F00F08B80802D7B
:1011B00040F2DE800320E6E020F00100C6F8940053
:1011C000FFF7A8F9054600BFD6F8940080077FF521
:1011D00020AFFFF79FF9401B02284FF00300F3D91F
:1011E000BFE100BFB9F10C0F00F05481306820F06E
:1011F00080703060306810F0205F03D1F06820F01C
:101200000300F060F0684FF6FF71CFF6EE61084022
:10121000F060FFF77FF904463068800140F1E68115
:10122000FFF778F9001B03284FF00300F4D398E18F
:10123000B9F10C0F00F02E81306840015CBF3068BE
:101240005FEAC00000F12681306820F080703060D5
:10125000FFF760F905463068800140F18581FFF7AE
:1012600059F9401B02284FF00300F4D979E100BF7F
:1012700020F001003060FFF74DF905463068800727
:101280007FF510AEFFF746F9401B02284FF0030030
:10129000F4D966E1306840F0080030603068D4E985
:1012A000072120F0F00008433060706820F47F4090
:1012B00040EA02207060F5E5FFF732FAB0F5007FF2
:1012C0007FF475AF812D5DD30120A02D88BF022052
:1012D00059E000BFD6F89010002821F00101C6F8AF
:1012E0009010D6F8901021F00401C6F8901000F08C
:1012F0007B80FFF70FF9054641F28837D6F890005A
:10130000800700F18380FFF705F9401BB842F5D94B
:10131000032003B0BDE8F0833168002821F4803158
:101320003160316821F48021316079D0FFF7F2F823
:10133000054600BF306880033FF537AEFFF7EAF897
:10134000401B64284FF00300F4D90AE120F48070B8
:101350003060FFF7DFF80546306840057FF556AE90
:10136000FFF7D8F8401B02284FF00300F4D9F8E04B
:10137000A5F17000B0FA80F04009802D08BF02206E
:1013800001E000BF002042F20001C4F202010A683D
:1013900022F0070202440A60096801F00701814255
:1013A00078D1306840F0080030603068D4E9072117
:1013B00020F0F00008433060706820F47F4040EA7D
:1013C0000220706054E000BFFFF7AAF9B0F5007F7B
:1013D00006D1812D34D30120A02D88BF022039E011
:1013E000802D2FD9032035E0FFF794F8054641F210
:1013F0008837D6F89000800708D5FFF78BF8401B98
:10140000B8424FF00300F4D9ABE000BFB8F1000FD1
:101410007FF402AEB06D20F08050B065FCE500BFF7
:10142000FFF778F80546306880037FF5BEADFFF71B
:1014300071F8401B64284FF00300F4D991E000BF1D
:10144000002007E0A5F17000B0FA80F04009802D7F
:1014500008BF022042F20001C4F202010A6822F031
:10146000070202440A60096801F00701814211D1B4
:10147000B068F16810F00C0005D00C282AD101F0FA
:101480000301012926D13168090707D4D6F8941041
:10149000090A05E0012003B0BDE8F08331680909BD
:1014A00043F2482201F00F01C0F6000252F8211069
:1014B00000280A4618BF00220C2837D1F06800F037
:1014C0000300022810D0032804BF41F20021C0F21B
:1014D0007A010DE004281FD0082823D141F2002210
:1014E000C0F27A0222E000BF42F20041C0F2F401F1
:1014F000F068F268C0F30210C2F306225143F268AA
:101500000130B1FBF0F0C2F34161022202EB410174
:10151000B0FBF1F20AE000BF42F20042C0F2F40276
:1015200004E000BF002200210C28C7D0B06843F2BD
:101530002E21C0F30310C0F60001085C00F01F006C
:1015400022FA00F140F20000C2F2000040F208026C
:101550000068C2F200021160FFF708F800283FF4AB
:10156000A1AC03B0BDE8F083F06848F28C01CFF67F
:101570009D1104F12C0700EA010C8ECFD4E90F5421
:101580006FF00F0040F2000E00EB0210CFF6E07E8D
:1015900041EA0C010EEB05554FF07E4208436FF314
:1015A000140502EB046240EA032002F07E420EF5CD
:1015B000F014284304EA473710433843F06030689A
:1015C00040F080703060F06840F08070F060FEF7AE
:1015D000A1FF04463068800108D4FEF79BFF001B82
:1015E00002284FF00300F5D9BBE700BF002003B08D
:1015F000BDE8F083411E0020B0EB116F1CBF01203D
:1016000070474EF21002CEF2000251604EF62351A6
:10161000CEF20001F0230B7007219060116070473B
:1016200070470000704700007047000010B590F848
:101630003C20012A4FF0020255D080F83D2002687C
:1016400043F2004C5368D2F808E0C4F2010C624542
:1016500005D042F60044C4F20104A24203D14C6812
:1016600023F4700323430C6823F07003234340F6F4
:10167000FF34C4F20004A242536011DD43F2FF3391
:10168000C4F201039A421BDC40F60043C4F200039B
:101690009A421DD042F60043C4F201030DE000BFA0
:1016A000B2F1804F14D040F20043C4F200039A42DA
:1016B0000ED040F60003C4F200039A4208D00CE0BA
:1016C00044F20003C4F201039A4201D0624504D1FE
:1016D00089682EF08003194391600121002280F86F
:1016E0003D1080F83C20104610BD0000002804BFCB
:1016F0000120704710B5044690F83D0028B900203D
:1017000084F83C00204600F00DF8022084F83D00EB
:101710002068211D00F0B6FF012084F83D00002064
:1017200010BD000080B586B0006840F60001C4F22C
:101730000001884218D040F20041C4F20001884202
:101740002AD0B0F1804F24D141F25800C4F20200F7
:10175000016841F001010160006800F001000190A2
:10176000019806B080BD00BF41F25800C4F20200EB
:101770000168002241F0040101600068002100F0CE
:101780000400019001981E20FEF742FF1E20FEF784
:101790002FFF06B080BD00BF41F25800C4F2020026
:1017A000016841F002010160016801F0020101914C
:1017B000019950F80C1C41F0010140F80C1C50F844
:1017C0000C0C002100F001000190019840200190D4
:1017D00002200290CDE90311059001A94FF090403D
:1017E000FEF7AEFD06B080BD0146022081F83D0047
:1017F000086807238268C0F201031A40062A02D053
:10180000B2F5803F04D10122002081F83D207047CD
:10181000026842F0010202600122002081F83D20AE
:101820007047000000680722C168C0F2010241F061
:101830000101C16081681140062902D0B1F5803FE5
:1018400002D10020704700BF016841F00101016032
:10185000002070470146022081F83D00086841F2EF
:101860001113026A1A4205D00122002081F83D209E
:10187000704700BF026A40F244431A42F4D1026842
:1018800022F0010202600122002081F83D20704711
:10189000006841F21112C16821F00101C160016AC2
:1018A000114201D000207047016A40F244421142C7
:1018B000F8D1016821F001010160002070470000AB
:1018C00080B590F83C20012A4FF0020200F0BF8062
:1018D00080F83D20D0F800C08822DCF80830CFF630
:1018E000FE721A40CCF808200B683F2B1CDD5F2BE2
:1018F00020DD602B50D0B3F5005F6DD0702B40F031
:10190000A080D1E901E3C968DCF8082043EA0E03AE
:1019100022F47F4243EA01211143CCF80810DCF89D
:10192000081041F077018AE01F2B29DC63B3102BEC
:101930002AD086E0402B63D0502B40F08280D1F833
:1019400004E0C968DCF82030DCF8202022F0010235
:10195000CCF82020DCF8182022F0F00242EA011135
:1019600023F00A0242EA0E02CCF81810CCF820202C
:10197000DCF8081041F0570121F020015FE000BFC2
:10198000202B01D0302B5CD1DCF8081021F0700145
:10199000194341F0070152E0D1F804E0C968DCF8CE
:1019A000203023F01003CCF82030DCF81830DCF8BD
:1019B000202023F4704322F0A00243EA013142EADE
:1019C0000E12CCF81810CCF82020DCF8081041F0EA
:1019D000670121F0100132E0D1E901E3C968DCF8C8
:1019E000082043EA0E0322F47F4243EA0121114317
:1019F000CCF80810DCF8081041F480411FE000BF6B
:101A0000D1F804E0C968DCF82030DCF8202022F0AE
:101A10000102CCF82020DCF8182022F0F00242EA83
:101A2000011123F00A0242EA0E02CCF81810CCF899
:101A30002020DCF8081041F0470121F03001CCF8FB
:101A400008100121002280F83D1080F83C2010464B
:101A500080BD00007047000010B5016804460869A9
:101A6000800744BFC8685FEA80703FD408694007B8
:101A700044BFC8685FEA407044D40869000744BFA7
:101A8000C8685FEA00704BD40869C00644BFC868E4
:101A90005FEAC06050D40869C0071CBFC8685FEA2D
:101AA000C07057D10869000644BFC8685FEA00608B
:101AB00058D40869C00544BFC8685FEA006059D4BB
:101AC0000869400644BFC8685FEA40605AD40869A4
:101AD000800646BFC8685FEA806010BD6FF02002D4
:101AE00020460A61BDE81040FFF79EBD6FF002007E
:101AF000086101202077886980074BD02046FFF7D6
:101B0000A9FF4DE06FF0040008610220207788698A
:101B100010F4407F48D02046FFF79CFF4AE000BF0A
:101B20006FF00800086104202077C869800745D05D
:101B30002046FFF78FFF47E06FF010000861082094
:101B40002077C86910F4407F42D02046FFF782FF1B
:101B500044E000BF6FF001000861204600F088FA01
:101B600021689FE76FF0800008612046FFF75AFD6B
:101B700021689EE76FF4807008612046FFF750FDF2
:101B800021689DE76FF040000861204600F00EFBE1
:101B900021689CE7204600F04BF8204600F030FA20
:101BA00021680020207761E7204600F041F82046B8
:101BB00000F026FA2168002020775EE7204600F03A
:101BC00037F8204600F01CFA2168002020775BE7F8
:101BD000204600F02DF8204600F012FA216800207F
:101BE000207758E780B586B00068B0F1804F01D00B
:101BF00006B080BD41F24C00C4F20200016841F021
:101C000001010160006801A900F001000190019844
:101C100020200190022002900020CDE90300012045
:101C200005904FF09040FEF78BFB06B080BD0000A2
:101C3000704700002DE9F04190F83C30012B4FF047
:101C4000020300F0BB814FEAB202052A80F83D3062
:101C500000F2AE81DFE812F006005000A200F400AE
:101C600030016C0103681A6AA3F1804622F0010278
:101C70001A621D6A1A465C6852F818CF8F68A6F57A
:101C80009636D1F800E025F002054FEAB626072E79
:101C900045EA07050AD80127B74017F0E50F1FBF2F
:101CA000CF6825F00C0527F004073D43072E0BD81D
:101CB000012707FA06F616F0E50F1FBF24F440745B
:101CC000D1E9056734433C434FF68C76CFF6FE7678
:101CD0000CEA060747EA0E075C609F614F680969D6
:101CE0005F631D629F6947F008079F619F6927F046
:101CF00004079F6159E100BF036843F200461A6A76
:101D0000C4F2010622F010021A621D6A1A465C68CB
:101D100052F818EFB3428E68D1F800C025F02005C4
:101D200045EA061505D042F60046C4F20106B34264
:101D300007D1CE686FF0400725F0C00507EA061608
:101D40003543A3F18046A6F596364FEAB626072E10
:101D50000DD8012707FA06F616F0E50F1FBF24F489
:101D60004064D1E9056744EA860444EA870448F6FA
:101D7000FF46CFF6FF660EEA060747EA0C275C60CF
:101D80009F614F6809699F631D629F6947F40067FF
:101D90009F619F6927F480679F6105E1036843F2B3
:101DA00000461A6AC4F2010622F480721A621D6AA1
:101DB0001A465C6852F81CCFB3428E68D1F800E036
:101DC00025F4007545EA062505D042F60046C4F222
:101DD0000106B34207D1CE6840F2FF47360225F430
:101DE0004065BE433543A3F18046A6F596364FEADB
:101DF000B626072E0DD8012707FA06F616F0E50FCE
:101E00001FBF24F44054D1E9056744EA061444EAAC
:101E100007144FF68C76CFF6FE760CEA060747EAF3
:101E20000E075C60DF614F680969DF631D62DF696F
:101E300047F00807DF61DF6927F00407DF61B4E0DE
:101E400003681A6AA3F1804722F480521A621A4684
:101E5000A7F59637D3F820805D6852F81CCFD1F8EB
:101E600000E08E684FEAB727072F09D80124BC404D
:101E700014F0E50F1EBF4C6925F4804545EA841532
:101E800028F4005444EA063448F6FF46CFF6FF66CD
:101E90000CEA060747EA0E275D60DF614F680969B3
:101EA0001F641C62DF6947F40067DF61DF6927F4A4
:101EB0008067DF6178E000BF03681A6AA3F180479A
:101EC00022F480321A621A46A7F59637D3F820809A
:101ED0005D6852F854EFD1F800C08E684FEAB7271A
:101EE000072F09D80124BC4014F0E50F1EBF4C6930
:101EF00025F4803545EA042528F4003444EA0644F4
:101F00004FF68C76CFF6FE7603360EEA060747EAE2
:101F10000C075D605F654F6809699F651C625F6DB6
:101F200047F008075F655F6D27F004075F653CE0D9
:101F300003681A6AA3F1804722F480121A621A46D3
:101F4000A7F59637D3F820805D6852F854EFD1F8A2
:101F500000C08E684FEAB727072F09D80124BC407C
:101F600014F0E50F1EBF4C6925F4802545EA842551
:101F700028F4001444EA065448F6FF46CFF6FF66FC
:101F800006F540760EEA060747EA0C275D605F65B6
:101F90004F680969DF651C625F6D47F400675F6524
:101FA0005F6D27F480675F6509021368194311604C
:101FB0000121002380F83D1080F83C301846BDE830
:101FC000F0810000002804BF0120704710B50446CE
:101FD00090F83D0028B9002084F83C00204600F02D
:101FE0000DF8022084F83D002068211D00F04AFB16
:101FF000012084F83D00002010BD00007047000063
:1020000070470000006801F01F020121036A01FA15
:1020100002F293430362036A1343A0F18042A2F5E4
:1020200096324FEAB222062A036219D8914011F083
:10203000650F15D0416C41F400414164816807226D
:10204000C0F201021140062902D0B1F5803F01D152
:1020500000207047016841F00101016000207047D5
:1020600044F60001C4F201018842E7D1E2E7000032
:1020700040F27821C2F20001884218BF7047F0B5E3
:1020800081B040F27820C2F20000FFF701FC40F27C
:102090003824C2F200042046FFF7DCFB40F2E816C9
:1020A000C2F20006B6F9001040F2F010C2F20000D1
:1020B00061B1022912D001293DD140F2EC11023068
:1020C000022701250022C2F200010FE040F2EA11CE
:1020D0000122C2F200010125012707E040F2EE11C2
:1020E00004300022C2F200010025002723685B6A49
:1020F000B1F9001093FBF1F140F23833C2F2000362
:10210000196001804FF090400121FEF7FDF94FF07A
:10211000904002212A46FEF7F7F94FF090408021C7
:102120000122FEF7F1F94FF090404FF48071012247
:10213000FEF7EAF9378020680021416240F27820FA
:10214000C2F20000FFF76EFB204601B0BDE8F04090
:10215000FFF74ABBB0B5044690F83C0001284FF0A9
:10216000020008BFB0BD012584F83C5084F83D0052
:10217000206800F027FB00284FF0010006D0002166
:1021800084F83D5084F83C10B0BD00BF2068C168A1
:1021900021F04001C160C16821F48041C16000208C
:1021A000002184F83D5084F83C10B0BD7047000019
:1021B00010B5A0B10446406F28B9002084F8700023
:1021C000204600F027F8242060672068016821F08D
:1021D00001010160204600F0D9FC012802D1012054
:1021E00010BD00BF606A10B1204600F0DFFB21681F
:1021F000486820F490404860886820F02A00886091
:10220000086840F0010220460A60BDE8104000F076
:1022100041BC000080B586B0006843F60001C4F2FE
:102220000101884202D006B080BD00BF41F24C00DF
:10223000C4F20200416941F480414161416901F405
:10224000804101910199016841F00101016000683C
:1022500001A900F00100019001984FF4C0600190C5
:102260000220029000200390032004900720059094
:102270004FF09040FEF764F806B080BD2DE9F043C2
:1022800081B00446406F20280BD10E4600294FF044
:1022900001005CD01746002A59D094F8700001283C
:1022A00004D1022001B0BDE8F08300BF012084F812
:1022B00070004FF0000921201D46C4F87C90606733
:1022C000FEF728F9A4F85070A4F85270A1680746E8
:1022D000B1F5805F08D1206900281CBF30464E460A
:1022E000B046064602E000BF4FF0000884F8709048
:1022F00009E000BF16F8010B21680885B4F8520008
:102300000138A4F85200B4F8520088B12046802168
:1023100000223B46009500F091FD88B9002EE9D1DE
:1023200038F8020B21686FF35F2008850026E5E787
:102330002046402100223B46009500F07FFD18B169
:10234000032001B0BDE8F08320206067002001B0C9
:10235000BDE8F083FEE70000FEE7000070470000E4
:1023600070470000F0B581B041F20007C4F20207E7
:10237000FA680D469107044614D0F868216800F009
:10238000030088424FF0010040F0A180002900F0D6
:102390009E80F8686168C0F302100130884232D133
:1023A00034E000BF206803280CD0022816D0012892
:1023B00029D13968012211F0020182EA510116D1B6
:1023C00020E000BF3968890310D43968012211F474
:1023D000802182EA91410AD114E000BF39680122CC
:1023E00011F4806182EA912101D10BE00021FA68A9
:1023F000636822F073026FF00F0606EB03131043BD
:102400001843F86011B1012001B0F0BD386820F028
:1024100080603860FEF77EF8064600BF386800012D
:1024200006D5FEF777F8801B0228F7D946E000BFF3
:10243000012D0FD005BB386948F2FF01CFF6FD71C1
:102440000140D4E902200023CFF6FE7303EA4030B6
:1024500020E000BF48F2FF013869CFF6FF1101F11B
:10246000B461014020690023CFF6E073A26803EB5A
:1024700000506FF314000DE0386948F2FF01CFF609
:10248000FF11014060694FF07E43A26803EB0060DA
:1024900000F07E4041EA022108433861386840F08C
:1024A00080603860FEF736F8054600BF38680001E6
:1024B00008D4FEF72FF8401B0228F7D9032001B0FB
:1024C000F0BD00BFA069396908433861002001B040
:1024D000F0BD0000F0B581B041F20007C4F2020780
:1024E000FA680D469107044614D0F868216800F098
:1024F000030088424FF0010040F08D80002900F079
:102500008A80F8686168C0F302100130884219D1EE
:1025100036E000BF2068032818D002280AD001281E
:1025200010D13968012211F0020182EA510108D06C
:1025300019E000BF3968012211F4806182EA91211B
:1025400011D1E9B1012001B0F0BD00BF39688903A4
:1025500008D43968012211F4802182EA9141F0D037
:1025600001E000BF0021FA68636822F073026FF097
:102570000F0606EB031310431843F8600029E1D15E
:10258000386820F080503860FDF7C4FF064600BF71
:102590003868800006D5FDF7BDFF801B0228F7D9FB
:1025A00030E000BF78696DB148F2FF01CFF6FF114E
:1025B000014020694FF07E43A26803EB006000F009
:1025C0007E400BE048F2FF01CFF6FD710140D4E9F7
:1025D00002200023CFF6FE7303EA403041EA0221D5
:1025E00008437861386840F080503860FDF792FF0A
:1025F000054600BF3868800008D4FDF78BFF401BFC
:102600000228F7D9032001B0F0BD00BF60697969E5
:1026100008437861002001B0F0BD00007047000061
:10262000FDF77EBF4EF68850CEF2000001684FF0F5
:10263000000C41F47001016041F20001C4F202019A
:102640000A6842F001020A60C1F808C00B684FF640
:10265000FF72CEF6F6221A400A604FF48052CA602A
:102660000A6822F480220A60C1F818C04FF00061A5
:1026700040F8801C7047000040F27820C2F2000051
:10268000FFF7EAB980B540F6FF330268C4F20003F1
:1026900098422DDCB0F1804F3CD040F20043C4F2B0
:1026A0000003984236D040F60003C4F2000398427B
:1026B00030D042F6FF33C4F20103984234DD43F6D2
:1026C000FF73C4F2010398423EDD44F20003C4F2FA
:1026D0000103984252D044F60003C4F20103984229
:1026E0004CD044F20043C4F20103984246D049E082
:1026F00040F60043C4F2000398420BD043F200437B
:10270000C4F20103984205D042F60043C4F201032B
:102710009842CED14B6822F070021A4342F6FF3342
:10272000C4F201039842CADC40F2FF73C4F2000312
:10273000984217DCB0F1804F20D040F20043C4F241
:10274000000398421AD01DE042F60043C4F2010390
:10275000984213D043F20043C4F2010398420DD0D3
:1027600010E000BF40F60003C4F20003984205D019
:1027700040F60043C4F20003984203D1CB6822F430
:1027800040721A434B6922F0800E8A6843EA0E03B6
:10279000D1F800C00360C262A0F18042A2F5963277
:1027A0004FEAB222072AC0F828C007D8012303FA4B
:1027B00002F212F0E50F1CBF0969016301214161BA
:1027C00080BD000010B582684FF6887CCFF6FE7C95
:1027D00002EA0C04D1E900E20CF170031340234338
:1027E00043EA0E046FF0030303EB3213032B846000
:1027F00016D8DFE803F003172B3F00BFBEF1050F2B
:1028000004BF012010BD026A036A23F001030362C2
:102810008369096923F0F00343EA011181610262CF
:10282000002010BD8A680969036A046A23F00A035C
:1028300024F00104046284691A4324F0F00444EA99
:10284000011181610262002010BD00BF8A68096920
:10285000036A23F0100303628369046A23F470435C
:1028600043EA013124F0A00343EA021281610262CB
:10287000002010BDD1E90223096984681A4324F4B9
:102880007F4442EA012121438160002010BD000005
:10289000B0B588B04FF09040102100220024FDF721
:1028A00033FE602001901420CDE9020440F2E810CC
:1028B000C2F20000CDE906440494059400F110042E
:1028C00001A920460022FFF7B5F920460021FFF7B5
:1028D00099FB40F2B82440F20C05C2F20004C2F2A7
:1028E00000052046294646220A23FFF7C7FC40F68A
:1028F000B830FDF711FD40F24F01C2F20001204651
:1029000046220A23FFF7BAFC40F6B830FDF704FD73
:1029100040F29301C2F20001204646220A23FFF74B
:10292000ADFC40F6B830FDF7F7FC40F2D701C2F23B
:102930000001204646220A23FFF7A0FC40F6B830EB
:10294000FDF7EAFC40F21B11C2F2000120464622CC
:102950000A23FFF793FC40F6B830FDF7DDFC40F2A8
:102960005F11C2F20001204646220A23FFF786FCCF
:1029700040F6B830FDF7D0FC40F2A211C2F20001DF
:10298000204646220A23FFF779FC40F6B830FDF7CF
:10299000C3FC2046294646220A23FFF76FFC40F677
:1029A000B830FDF7B9FC08B0B0BD000080B5416A91
:1029B000CA070DD18A0716D44A071FD40A0728D49C
:1029C000CA0631D48A063AD44A0658D542E000BF36
:1029D0000268D0F828C0536823F4003343EA0C039C
:1029E00053608A07E8D50268D0F82CC0536823F4F6
:1029F000803343EA0C0353604A07DFD50268D0F8FE
:102A000030C0536823F4802343EA0C0353600A0761
:102A1000D6D50268D0F834C0536823F4004343EAA3
:102A20000C035360CA06CDD50268D0F838C093684D
:102A300023F4805343EA0C0393608A06C4D50268EA
:102A4000D0F83CC0936823F4005343EA0C0393602E
:102A50004A0614D50268D0F840C05368BCF5801F00
:102A600023F4801343EA0C03536008D1D2F804C066
:102A7000D0F844E02CF4C00343EA0E035360090687
:102A800058BF80BD0168806C4A6822F40022104360
:102A9000486080BD70B504460020264646F87C0F8D
:102AA000FDF738FD216805460A6812070ED408684C
:102AB00040072DD42020606704F1780600202021F3
:102AC0003160002184F8701070BD00BFC8698002B9
:102AD000EDD4FDF71FFD2168421B0868B2F1007FAD
:102AE00038D2400744BFC8695FEA0050EED54FF4C2
:102AF00000600862086820F4D0700860886820F0E0
:102B00000100886020206067A0670320D7E700BF2E
:102B1000C8694002CED4FDF7FDFC2168421B08685D
:102B2000B2F1007F24D2400744BFC8695FEA005079
:102B3000EED54FF400600862086820F4D070086099
:102B4000886820F00100886020206067A06703206B
:102B5000B5E700BF20F4D0700860886804F17806FB
:102B600020F001008860202060670320A7E700BFF5
:102B700020F4D0700860886804F1780620F0010025
:102B8000886020206067032099E70000B0B5044604
:102B90002269D4E90213006865690A43D4F81CC0AD
:102BA0002A43056846F6F311CEF6FF7142EA0C029D
:102BB000294011430160416848F2000221F440516C
:102BC00019434160A369C4F2000290421CBF216A0C
:102BD0000B438168102521F430611943816044F66C
:102BE000FF71C4F20001884218DC44F20041C4F2D3
:102BF0000001884228D044F60001C4F20001884256
:102C00002AD044F60041C4F20001884242D141F288
:102C10008801C4F2020109688B0933E045F2000122
:102C2000C4F2000188421FD0904225D043F6000133
:102C3000C4F2010188422DD141F28801C4F202019F
:102C40000B687AA522E000BF41F28801C4F20201BC
:102C500009688B0816E000BF41F28801C4F2020146
:102C600009680B090EE000BF41F28801C4F20201BD
:102C700009680B0A06E000BF41F28801C4F20201B4
:102C800009688B0A43F27825C0F6000503F00301BA
:102C900055F82150904217D0BCF5004F2AD1082D8D
:102CA0004FF0010000F25C8044F60001C0F2E81130
:102CB000DFE805F0065A64565E565656620000BFBD
:102CC000FEF74EF8410059E0082D4FF0010047D8BB
:102CD00042F20041C0F2F401DFE805F0064228426A
:102CE00020424242260000BFFEF73AF80146E8B90A
:102CF00018E000BF082D4FF0010031D842F200412A
:102D0000C0F2F401DFE805F0064E582C522C2C2CB2
:102D1000560000BFFEF724F801464DE0FEF74CF8E0
:102D2000014618B900201BE04FF40041626802EB35
:102D3000420081424FF0010012D3130399420FD891
:102D4000082D4FF001000BD8DFE805F0060A460A0F
:102D50004E0A0A0A5C0000BFFEF702F846E000BF18
:102D60000021C4E91811B0BDFEF710F8410005E0DC
:102D7000FEF722F8410001E04FF48031606801EB7A
:102D80005001B1FBF0F14FF6F070084048D0C1F3AC
:102D9000420122680843D06000200021C4E91811D4
:102DA000B0BD00BFFDF7F2FF014605E0FEF704F8F5
:102DB000014601E04FF40041606801EB5001B1FBB6
:102DC000F0F080B210282BD32168C86000200021C9
:102DD000C4E91811B0BD00BF0020CFF2244010EBB1
:102DE00052004FF0000106E0FDF7E6FF6268010EB9
:102DF000000210EB520041F100010023FDF7E0F961
:102E000006E000BF4FF4000000EB5200B0FBF2F010
:102E10004FF6FF42A0F54071C0F20F029142D3D9A4
:102E200001200021C4E91811B0BD00BF010000005D
:102E30000400000002000000080000002DE9F0413D
:102E4000064600681446C2690D461140491BB1FA96
:102E500081F14909A14254D1DDF81880B8F1000F81
:102E600024D018F1010135D1C1692940491BB1FABB
:102E700081F14909A14244D1C1692940491BB1FAF4
:102E800081F14909A1423CD1C1692940491BB1FAEC
:102E900081F14909A14234D1C1692940491BB1FAE4
:102EA00081F14909A142DFD02BE000BFFDF732FBE1
:102EB0003068016821F4D0710160816821F001015E
:102EC000816020207067B067002086F870000320C2
:102ED000BDE8F0811F4600BFFDF71CFBC01B40454D
:102EE000E6D830680168490744BFC1695FEA01510B
:102EF0000AD4C0692840401BB0FA80F04009A042C3
:102F0000EAD00020BDE8F0814FF400610162016861
:102F100021F4D0710160816821F0010181602020DD
:102F20007067B067F067002086F870000320BDE886
:102F3000F0810000FEE70000B8B0FDF7FFFA27AD12
:102F4000281D4021FDF777F9E946002648468821EB
:102F50002696CDE92466CDE92266FDF76CF91020AE
:102F600027904FF001084FF0600A2846CDE92D86E2
:102F7000CDF8BCA03196FDF781FF0F20CDE92206E8
:102F800022A80021CDE924662696FDF7C3FD484618
:102F9000CDF800800E96FDF7CBFB4FF40070FDF7E7
:102FA00073FB41F24C000496C4F202000168002257
:102FB00041F001010160006840F2931100F001004E
:102FC000279027984FF0904040F29314FDF79CFA19
:102FD00069464FF09040CDE90048CDE90266FDF723
:102FE000AFF940F23824C2F2000440F20042C4F2C9
:102FF00000024FF6FF71204603962996CDE9276619
:1030000022601546C4E90166C4E90316A661FEF70D
:103010006DFB07200090502001900220029069462D
:1030200020460496FFF796F82020279027A92046EF
:103030002996FEF7FBFA40F2782705F58060C2F288
:103040000007092240F69F71C7E90002384603963F
:10305000CDE901662996CDE927660924C7E9026111
:103060003E61BE61FEF742FB4FF4805B6946384625
:10307000CDF800B0FEF724FC27A9384627962996FC
:10308000FEF7D4FA40F2E818C2F200084FF0804090
:10309000454645F8100F2720C8E9070628462A9616
:1030A000CDE928662496CDE922660696CDE9046628
:1030B000CDE90266CDE90066C8E90546C8F8286092
:1030C000FEF714FB27A92846CDF89CB0FEF7F8FBC5
:1030D0002846FEF777FF22A9284622962496FEF777
:1030E000A5FA694628460022CDE900A60296049674
:1030F000FEF7A0FD2846FEF775FD40F20040C4F241
:10310000000040F2B82B00F59A30C2F2000B4FF4E9
:10311000E1310C228BE843005846CBE90366CBE94A
:103120000526CBE90766CBF82460FFF741F84FF09E
:10313000904010210122FDF7E7F94FF09040012166
:103140000022FDF7E1F94FF0904002210022FDF747
:10315000DBF94FF0904080210122FDF7D5F94FF0C7
:1031600090404FF480710122FDF7CEF938686FF07E
:10317000010404613846FEF755FB40F23820C2F2E4
:10318000000001680C61FEF72FFB286840F20C017B
:1031900004610320C0F20100C8F802000220C8F850
:1031A0000600C2F20001584646220A23A8F8006031
:1031B000C8F80A60FFF762F840F6B830FDF7ACF8DF
:1031C000684600F10C045A274FF09040102101226C
:1031D000FDF79AF908F11005284649460022C4E98E
:1031E0000066C4E90266CDE900A702960496FEF7E0
:1031F00021FD28460021FEF705FFB8F908005128F7
:10320000E2DBB8F90C005F28DEDCFFF741FBDBE70F
:1032100002E008C8121F08C1002AFAD1704770479F
:10322000002001E001C1121F002AFBD170470000FD
:103230000000000000000102030406070809000066
:103240000000010203040000A0860100400D0300FD
:10325000801A060000350C0040420F0080841E00DA
:1032600000093D0000127A000024F40000366E01CF
:103270000048E801006CDC020000000004000000CF
:103280000200000008000000A83200080000002032
:10329000E8010000B002000828330008E80100201F
:1032A000580500002032000810061000000001043C
:1032B000401500093D002335503832355333303046
:1032C0002334503134370B30073350313630300B24
:1032D0005005325032300B4005315035370A50041A
:1032E00030503115230D0A436005313532304460CA
:1032F00004323430447233440004353136374403E9
:103300005F30364403213232CC032A3230448631D6
:103310001052337200055E33503939439552000420
:083320000000000000000000A5
:040000050800018965
:00000001FF
