:020000040800F2
:10000000400700209D010008E11D0008151C0008A4
:10001000DD1D0008110300089D2D000800000000F0
:100020000000000000000000000000009521000812
:100030001503000800000000111E0008F52100084B
:10004000B7010008B7010008B7010008B7010008B0
:10005000B7010008B7010008B7010008B7010008A0
:10006000B7010008B7010008B7010008B701000890
:10007000B7010008B7010008B7010008B701000880
:10008000B7010008B7010008B7010008B701000870
:10009000B7010008B7010008B7010008B701000860
:1000A000B7010008B7010008B7010008B701000850
:1000B000B7010008B7010008B5220008B701000821
:1000C000B7010008B7010008B7010008B701000830
:1000D000B7010008B7010008B7010008B701000820
:1000E000B7010008B7010008B7010008B701000810
:1000F000B7010008B7010008B7010008B701000800
:10010000B7010008B7010008B7010008B7010008EF
:10011000B7010008B7010008B7010008B7010008DF
:10012000B7010008B7010008B7010008B7010008CF
:10013000B7010008B7010008B7010008B7010008BF
:10014000B7010008B7010008B7010008B7010008AF
:10015000B7010008B7010008B7010008B70100089F
:10016000B7010008B7010008B7010008B70100088F
:10017000B7010008B7010008B7010008000000003F
:10018000B7010008B7010008DFF80CD000F07EF8D6
:1001900000480047152E0008400700200648804709
:1001A00006480047FEE7FEE7FEE7FEE7FEE7FEE75C
:1001B000FEE7FEE7FEE7FEE761220008890100088E
:1001C0002DE9F05F0546002092469B46884606468C
:1001D000814640241BE0284641464746224600F01F
:1001E00044F853465A46C01A914110D31146184656
:1001F000224600F02BF82D1A67EB01084F462246E5
:100200000120002100F022F817EB00094E41201ECA
:10021000A4F10104DFDC484631462A46434600F09B
:1002200000B830BCBDE8C09FD2B201E000F8012B9D
:10023000491EFBD270470022F6E710B513460A4666
:1002400004461946FFF7F0FF204610BD202A04DBC4
:10025000203A00FA02F1002070479140C2F12003D9
:1002600020FA03F3194390407047202A04DB203A18
:1002700021FA02F00021704721FA02F3D040C2F1C6
:10028000200291400843194670470000064C074D74
:1002900006E0E06840F0010394E807009847103456
:1002A000AC42F6D3FFF774FF7C2F00089C2F0008A8
:1002B00070B58D1810F8014B14F0030201D110F83D
:1002C000012B231106D110F8013B03E010F8016B5C
:1002D00001F8016B521EF9D1ABB110F8012B04F0FB
:1002E0000C048A1A0C2C03D0A2EB84129B1C08E08D
:1002F00010F8014BA2EB0422F8E712F8014B01F8C9
:10030000014B5B1EF9D5A942D4D3002070BD00007B
:10031000FEE7000070470000B0B5044600F0F4F8B6
:10032000054640F2E010C2F200000068611C18BFF0
:10033000044400BF00F0E8F8401BA042FAD3B0BD6F
:100340002DE9F04F83B00F68002F00F0D18000F14D
:1003500038424FEAB222019241F60002C4F600028E
:100360000723002600244FF00108904208BF06230F
:10037000009309E00F68043437FA08F208F1010825
:1003800006F1020600F0B480A8F1010A012202FA87
:100390000AFB17EA0B0CEDD04F68122F19D8012277
:1003A000BA4012F0061F14D082680323D1F80CE083
:1003B00003FA06F922EA09020EFA06F52A438260D8
:1003C0004268C7F3001522EA0B0205FA0AF52A4330
:1003D000426007F00302032A08D1C26AC7F3C005CE
:1003E00022EA0B0205FA0AF52A43C262C568032213
:1003F0008B68B2409543B34047F010072B43122F50
:10040000C36013D16FF0030303EA5A03034404F0FB
:100410001C050F27D3F820E007FA05F90F692EEA2B
:10042000090E07FA05F545EA0E071F6203684F68D3
:10043000D2431A4007F00303B3401A43FB000260A3
:1004400098D541F26003C4F202031A6840F2004EEC
:1004500042F001021A601A68C4F2010E02F00102B1
:100460000292029A2AF003024FF6084A7244CFF62B
:10047000FF7A52F80A3004F00C070F25BD4023EA3A
:100480000509019B009D062B38BF1D4605FA07F79D
:1004900047EA090342F80A30DEF800204B6842EAD6
:1004A0000C07DD0358BF22EA0C07CEF80070DEF817
:1004B00004209D0342EA0C0758BF22EA0C07CEF83D
:1004C0000470DEF80820DD0242EA0C0740F20C4519
:1004D00058BF22EA0C07CEF80870C4F201052A685A
:1004E0009B0242EA0C0758BF22EA0C072F6041E743
:1004F00003B000F000B830BCBDE8C08F1823002A5C
:1005000008BF2823C150704740F23C30C2F20000BF
:100510000068704740F2E01040F23C31C2F2000047
:10052000C2F2000100680A681044086070470000C9
:1005300080B542F20000C4F20200016841F480710B
:100540000160032000F066F8002000F009F80028A0
:100550001CBF012080BD00F02FF8002080BD0000EE
:10056000B0B540F2E011C2F20001096801B30446DF
:1005700040F20000C2F200004FF47A720068B2FB51
:10058000F1F1B0FBF1F000F079FE0F2C4FF0010516
:100590000CD858B94FF0FF3021460022002500F05A
:1005A00029F840F2E410C2F2000004602846B0BD11
:1005B00001252846B0BD000082B041F25800C4F2C7
:1005C0000200816841F001018160816801F0010150
:1005D00001910199016841F080510160006800F0CB
:1005E00080500090009802B07047000080B502F083
:1005F000D7FB80BD70B514460D46064602F0E0FB01
:100600002946224601F0EEFB0146304602F0E0FBAF
:1006100070BD000080B502F0EDFB80BD47F2000127
:10062000C4F200010A68B0F5007F02F4C06026D170
:10063000B0F5007F21D00868012262F34A200860EB
:1006400040F20000C2F200000068322358434DF629
:100650008363C4F21B33A0FB030302EB934000BF90
:100660004B69421E824203D213F480601046F7D1D8
:100670004869400544BF0320704700207047B0F52B
:10068000806FFAD00868022262F34A2008600020D6
:100690007047000047F20000C4F20000006800F458
:1006A000C06070472DE9F04782B00446407841F2BF
:1006B00088070007C4F2020702D44FF0000A35E0B1
:1006C000606E4FEAB05003280ED84FF0000ADFE802
:1006D00000F002111C17201D002101F09BFB824637
:1006E000BAF1000F0FD11BE04FF0010ABAF1000F71
:1006F00009D115E004F12000002101F053FC8246ED
:10070000BAF1000F0CD0D04612E057F87C0C4FF035
:10071000000A40F4803047F87C0CBAF1000FF2D1A7
:100720003868616E20F44000084338604FF00008DC
:100730006078C00631D5A06E4FEA306003280CD82F
:10074000DFE800F002111C17201D002101F062FB00
:100750008246BAF1000F0FD119E04FF0010ABAF149
:10076000000F09D113E004F12000002101F01AFC70
:100770008246BAF1000F0AD0D0460EE057F87C0C42
:1007800040F4803047F87C0CBAF1000FF4D138689F
:10079000A16E20F0407008433860A078800701D433
:1007A000C24665E057F8300C10F080590BD157F86D
:1007B000300C40F0805047F8300C57F8300C00F007
:1007C00080500190019847F20005C4F200052868A6
:1007D00040F480702860FFF797FE06462868C00541
:1007E00006D4FFF791FE801B0328F7D34FF0030ACE
:1007F000BAF1000F33D1B86810F4407012D0D4F8B9
:10080000841088420BD0B868B96820F4407041F475
:100810008031B960B96821F48031B960B860C0072F
:1008200003D111E00020C0070ED0FFF76DFE064691
:1008300041F28935B868800706D4FFF765FE801B52
:10084000A842F7D34FF0030ABAF1000F07D1B868F6
:10085000D4F8841020F440700843C246B860B9F15F
:10086000000F05D157F8300C20F0805047F8300CBD
:100870002068C10716D181071CD4410722D4010783
:1008800028D4C1062ED4810634D481053AD441053A
:1008900040D4410646D401064CD4C10552D480044C
:1008A00058D471E03968A26B21F00301114339601B
:1008B0008107E2D53968E26B21F00C011143396000
:1008C0004107DCD53968226C21F0300111433960D1
:1008D0000107D6D53968626C21F0C0011143396037
:1008E000C106D0D53968A26C21F44071114339603A
:1008F0008106CAD53968E26C21F440611143396040
:100900008105C4D53968E26D21F440211143396075
:100910004105BED53968226E21F44011114339607A
:100920004106B8D53968226D21F440511143396030
:100930000106B2D53968626D21F440411143396036
:10094000C105ACD53968A26D21F44031114339603D
:10095000800419D53968E06E21F040610143B0F19F
:10096000806F396009D0B0F1006F0DD157F87C0C61
:1009700040F4801047F87C0C06E0201D012101F0B6
:1009800049FA002818BF8246A078000719D53968AF
:10099000206F21F040610143B0F1806F396009D0D0
:1009A000B0F1006F0DD157F87C0C40F4801047F87F
:1009B0007C0C06E0201D012101F02CFA002818BF54
:1009C0008246A078400719D53968606F21F04061F0
:1009D0000143B0F1806F396009D0B0F1006F0DD1E3
:1009E00057F87C0C40F4801047F87C0C06E0201D82
:1009F000012101F00FFA002818BF824660784006F6
:100A000018D53968A06F21F040510143B0F1005F63
:100A1000396007D0B0F1805F0CD1201D022101F0B8
:100A2000F9F904E004F12000022101F0BBFA0028EA
:100A300018BF82462068010405D53968E26F21F0AD
:100A4000804111433960C00306D53868D4F880105E
:100A500020F0004008433860504602B0BDE8F087FF
:100A60002DE9F04381B000287AD042F20008C4F2A8
:100A700002080446D8F800000D4600F0070088423E
:100A80000CD2D8F8000020F007002843C8F8000076
:100A9000D8F8000000F00700A84261D1207841F2A8
:100AA0000809C007C4F2020950D12068810707D5A0
:100AB000D9F80010A26821F0F0011143C9F8001024
:100AC000D8F8001001F00701A9420CD9D8F800109D
:100AD00021F007012943C8F80010D8F8001001F0F0
:100AE0000701A9423CD1410707D5D9F80010E268B7
:100AF00021F4E0611143C9F80010000708D5D9F8C6
:100B00000000216920F4605040EAC100C9F80000EB
:100B100000F084F8D9F8001042F63472C1F30311E2
:100B2000C0F60002515C40F2000201F01F0120FA01
:100B300001F140F2E410C2F200000068C2F20002CB
:100B40001160FFF70DFD01B0BDE8F083606858B19A
:100B500002282BD003282ED159F8081C890107D46C
:100B6000012001B0BDE8F08359F8081C8907F7D5CA
:100B7000D9F8001021F003010843C9F80000FFF77D
:100B8000C3FC064641F28837D9F80000616800F0DE
:100B90000C00B0EB810F3FF488AFFFF7B5FC801B72
:100BA000B842F1D9032001B0BDE8F08359F8081C20
:100BB0008903D5D5DCE759F8081C4905D0D5D7E716
:100BC00040F20000C2F200000068704780B5FFF7F5
:100BD000F7FF41F20801C4F20201096842F64472CB
:100BE000C1F30221C0F60002515C01F01F01C840B0
:100BF00080BD000080B5FFF7E3FF41F20801C4F2B9
:100C00000201096842F64472C1F3C221C0F6000233
:100C1000515C01F01F01C84080BD000041F20C0191
:100C2000C4F2020151F8040C10F00C02086805D05F
:100C30000C2A40D100F0030001283CD151F80C0CE3
:100C4000000703D4D1F88800000A02E051F80C0C28
:100C5000000942F64C7300F00F00C0F6000353F891
:100C60002030002A184618BF00200C2A18BF7047F1
:100C7000086800F00300022806D0032804BF41F2F0
:100C80000023C0F27A0303E042F20043C0F2F4030F
:100C900008680A68C0F30210C2F30622096801302E
:100CA0005A43B2FBF0F0C1F34161022202EB410171
:100CB000B0FBF1F07047042A07D0082A0BD141F2AB
:100CC00000200023C0F27A00CFE742F20040002368
:100CD000C0F2F400C9E700200023C6E72DE9F04385
:100CE00081B0002800F0268241F200060446C4F2DA
:100CF0000206B068F168227800F00C09D00601F015
:100D000003081DD42078C00700F0EF80B9F1080F68
:100D100045D0B9F10C0F08BFB8F1030F3FD065689B
:100D2000B5F5A02F00F0BC80B5F5803F00F0BC8089
:100D3000306820F480303060306820F48020B6E0E5
:100D4000B9F1000F1CD0B9F10C0F08BFB8F1010FB9
:100D500016D0A1693068002978D040F001003060D9
:100D6000FFF7D2FB054600BF3068800700F18080A6
:100D7000FFF7CAFB401B02284FF00300F4D922E220
:100D80003068800703D5A069002800F0D381206A6D
:100D9000316809070CD4D6F89410090909E03068C5
:100DA000800340F1A2806068002840F09E80C1E18D
:100DB000316801F0F001884216D901F0A3F900284A
:100DC00040F0B881306840F0080030603068D4E905
:100DD000072120F0F00008433060706820F47F4065
:100DE00040EA0220706013E03168B9F1000F41F071
:100DF00008013160316821F0F00141EA0001316001
:100E00007168E26921F47F4141EA0221716041D0B9
:100E1000FFF704FFB16842F63472C1F30311C0F664
:100E20000002515C40F2000201F01F0120FA01F1C2
:100E300040F2E410C2F200000068C2F20002116049
:100E4000FFF78EFB002840F0BE815BE720F0010039
:100E50003060FFF759FB0546306880077FF552AFD9
:100E6000FFF752FB401B02284FF00300F4D9AAE120
:100E7000306840F0080030603068D4E9072120F085
:100E8000F00008433060706820F47F4040EA0220A0
:100E9000706037E701F036F9002840F04B81B7E782
:100EA000306840F480203060306840F4803030603A
:100EB000FFF72AFB002D054614D000BF30688003E1
:100EC00013D4FFF721FB401B64284FF00300F5D932
:100ED00079E100BFFFF718FB401B64284FF00300C7
:100EE00000F2718130688003F4D4207880072CD51B
:100EF000B9F1040F1BD0B9F10C0F08BFB8F1020F04
:100F000015D0E1683068002900F04C8140F4807011
:100F10003060FFF7F9FA0546306840050ED4FFF758
:100F2000F3FA401B02284FF00300F5D94BE130687B
:100F3000400503D5E068002800F0FC807068216956
:100F400020F0F85040EA01607060207800075ED41D
:100F50002078400775D4A06A002800F08A81022812
:100F600040F0B980F068E16A00F003028A4240F084
:100F7000D780226B6FF00F0300F0700103EB0212B9
:100F8000914240F0CD80616B00F4FE42B2EB012F44
:100F900040F0C680A16B00F40032073918BF012170
:100FA0008A4240F0BD80E26B0023CFF6E07303EB92
:100FB000025200F4C0016FF31402914240F0B0807D
:100FC000216C4FF07E4202EB016100F0C06001F045
:100FD0007E41884240F0A4803068800100F1498160
:100FE000306840F080703060F06840F08070F060F1
:100FF000FFF78AFA04463068800100F13A81FFF772
:1010000083FA001B02284FF00300F4D9DBE061698A
:10101000D6F8940000294AD040F00100C6F89400A8
:10102000FFF772FA054600BFD6F8940080078FD408
:10103000FFF76AFA401B0228F6D9032001B0BDE889
:10104000F083B06D10F0805808D1B06D40F0805042
:10105000B065B06D00F080500090009847F2000736
:10106000C4F200073868C00511D4386840F48070B5
:101070003860FFF749FA05463868C00507D4FFF71E
:1010800043FA401B02284FF00300F5D99BE0A56806
:10109000052D53D0012D57D0D6F8900020F0010037
:1010A000C6F89000D6F8900020F0040050E020F040
:1010B0000100C6F89400FFF727FA0546D6F8940019
:1010C00080077FF545AFFFF71FFA401B02284FF05E
:1010D0000300F3D977E0B9F10C0F2BD0306820F082
:1010E00080703060306810F0205F03D1F06820F02D
:1010F0000300F060F0684FF6FF71CFF6EE61084034
:10110000F060FFF701FA04463068800140F1B180D9
:10111000FFF7FAF9001B03284FF00300F4D352E065
:10112000B9F10C0F06D0306840015CBF30685FEA4F
:10113000C0004BD5012001B0BDE8F083D6F8900087
:1011400040F00400C6F89000D6F8900040F001008E
:10115000C6F89000FFF7D8F9002D054641F2883710
:1011600013D000BFD6F89000800712D4FFF7CCF957
:10117000401BB8424FF00300F4D924E0FFF7C4F954
:10118000401BB8424FF003001DD8D6F890008007EE
:10119000F4D4B8F1000F7FF4DEAEB06D20F08050D3
:1011A000B065D8E620F480703060FFF7ADF90546F1
:1011B000306840057FF5C9AEFFF7A6F9401B02284D
:1011C0004FF00300F4D901B0BDE8F083306820F09F
:1011D00080703060FFF798F905463068800107D5C8
:1011E000FFF792F9401B02284FF00300F5D9EAE718
:1011F000F06848F28C01CFF69D1104F12C0700EA4B
:10120000010C8ECFD4E90F546FF00F0040F2000EA6
:1012100000EB0210CFF6E07E41EA0C010EEB055523
:101220004FF07E4208436FF3140502EB046240EA7C
:10123000032002F07E420EF5F014284304EA4737FB
:1012400010433843F060306840F080703060F068E0
:1012500040F08070F060FFF757F904463068800175
:1012600007D4FFF751F9001B02284FF00300F5D90E
:10127000A9E7002001B0BDE8F083000080B500F0D0
:10128000A1FF80BD7047000070470000704700005C
:1012900010B590F83C20012A4FF0020257D00123EC
:1012A00080F83C3080F83D20026843F2004C5368DF
:1012B000D2F808E0C4F2010C624505D042F60044C1
:1012C000C4F20104A24203D14C6823F47003234307
:1012D0000C6823F07003234340F6FF34C4F200048B
:1012E000A242536010DD43F2FF33C4F201039A427D
:1012F0001ADC40F60043C4F200039A421CD042F6C6
:101300000043C4F201030CE0B2F1804F14D040F26C
:101310000043C4F200039A420ED040F60003C4F228
:1013200000039A4208D00CE044F20003C4F2010327
:101330009A4201D0624504D189682EF08003194396
:1013400091600121002280F83D1080F83C20104679
:1013500010BD0000002804BF0120704710B50446EE
:1013600090F83D0028B9002084F83C00204600F0A9
:101370000DF8022084F83D002068211D00F0A2FF36
:10138000012084F83D00002010BD000080B586B02B
:10139000006840F60001C4F2000188424FF00001ED
:1013A0000591CDE90311CDE9011117D040F20041BB
:1013B000C4F20001884228D0B0F1804F23D141F21D
:1013C0005800C4F20200016841F0010101600068A8
:1013D00000F001000090009806B080BD41F2580076
:1013E000C4F202000168002241F0040101600068BB
:1013F000002100F00400009000981E20FFF7FAF88A
:101400001E20FFF7F3F806B080BD41F25800C4F289
:101410000200016841F002010160016801F002016F
:101420000091009950F80C1C41F0010140F80C1C8F
:1014300050F80C0C002100F00100009000984020B2
:10144000019002200290CDE90311059001A94FF00F
:101450009040FEF775FF06B080BD000001460220F7
:1014600081F83D00086807238268C0F201031A4032
:10147000062A06D0B2F5803F03D0026842F001028E
:1014800002600122002081F83D2070470068072299
:10149000C168C0F2010241F00101C16081681140E0
:1014A000062902D0B1F5803F01D1002070470168C4
:1014B00041F0010101600020704700000146022058
:1014C00081F83D00086841F21113026A1A4208D1FE
:1014D000026A40F244431A4203D1026822F0010238
:1014E00002600122002081F83D207047006841F22F
:1014F0001112C16821F00101C160016A114201D0DD
:1015000000207047016A40F244421142F8D101685C
:1015100021F00101016000207047000010B5044671
:1015200090F83C0001284FF0020008BF10BD0122D6
:1015300084F83C2084F83D00206888238268CFF638
:10154000FE731A4082600A683F2A14DD5F2A18DDA4
:10155000602A28D0B2F5005F2DD0702A40D1D1E9A1
:10156000012CCB68614600F051FF2068816841F092
:101570007701816034E01F2A0FDC92B1102A10D06D
:101580002EE0402A23D0502A2AD14B68CA68194637
:1015900001F0F6F82068502120E0202A01D0302AFE
:1015A0001ED111461AE04B68CA68194601F0FAF8D4
:1015B0002068602112E0D1E9012CCB68614600F07F
:1015C00025FF2068816841F48041816008E04B6814
:1015D000CA68194601F0D4F82068402100F022FFC3
:1015E000012084F83D00002084F83C0010BD00007C
:1015F0007047000010B5044600680169890744BFC0
:10160000C1685FEA817140D420680169490744BF1D
:10161000C1685FEA417144D420680169090744BF89
:10162000C1685FEA017149D420680169C90644BFF5
:10163000C1685FEAC1614DD420680169C9071CBF58
:10164000C1685FEAC17152D120680169090644BFCF
:10165000C1685FEA016151D420680169C90544BFCE
:10166000C1685FEA016150D420680169490644BF3E
:10167000C1685FEA41614FD420680169890644BFAF
:10168000C1685FEA81614ED410BD6FF00201016153
:1016900001212177806980074CD02046FFF7A8FF01
:1016A0004EE06FF00401016102212177806910F49E
:1016B000407F48D02046FFF79BFF4AE06FF00801CB
:1016C000016104212177C069800745D02046FFF7DA
:1016D0008FFF47E06FF01001016108212177C06999
:1016E00010F4407F41D02046FFF782FF43E06FF0C7
:1016F00001010161204600F021F9A5E76FF08001AA
:1017000001612046FFF7C0FDA6E76FF4807101611B
:101710002046FFF7B7FDA7E76FF0400101612046C3
:1017200000F0A4F9A8E76FF0200101612046FFF75F
:10173000ADFD10BD204600F04BF8204600F0CAF881
:101740000020207760E7204600F042F8204600F0B5
:10175000C1F8002020775FE7204600F039F82046E6
:1017600000F0B8F8002020775EE7204600F030F85F
:10177000204600F0AFF8002020775DE780B586B006
:1017800000680021B0F1804F0591CDE9031102916D
:10179000019101D006B080BD41F24C00C4F20200BC
:1017A000026842F001020260006800F0010000904F
:1017B0000098202001900220CDE90201012004912F
:1017C000059001A94FF09040FEF7BAFD06B080BD2C
:1017D0007047000070B5044690F83C0001284FF0B7
:1017E000020008BF70BD0D464FEAB201012605296F
:1017F00084F83C6084F83D0047D8DFE801F0030B33
:10180000131B23332068294600F014FE206850F88B
:10181000181F1EE02068294600F04CFE206850F892
:10182000181F26E02068294600F08CFE206850F83A
:101830001C1F0EE02068294600F0CCFE206850F8FE
:101840001C1F16E02068294600F0F4FE206850F8BE
:10185000541F41F008010160016821F0040101609A
:1018600029690FE02068294600F014FF206850F82D
:10187000541F41F400610160016821F4806101603E
:1018800029690902026811430160002084F83D6063
:1018900084F83C0070BD0000002804BF01207047A0
:1018A00010B5044690F83D0028B9002084F83C00AB
:1018B000204600F00DF8022084F83D002068211D2C
:1018C00000F000FD012084F83D00002010BD000064
:1018D0007047000070470000B0B504460068012260
:1018E000012500F081FD2068A0F18041A1F596312D
:1018F0004FEAB12106291AD805FA01F111F0650F56
:1019000015D0416C41F40041416481680722C0F266
:1019100001021140062902D0B1F5803F01D100201B
:10192000B0BD016841F0010101600020B0BD44F686
:101930000001C4F201018842E7D1E2E740F27821D8
:10194000C2F20001884218BF7047F0B581B040F282
:101950007820C2F20000FFF7C9FD40F23824C2F23D
:1019600000042046FFF7AAFD40F2F416C2F200067A
:10197000B6F9000058B1022811D0012840D140F238
:10198000EA11022701250022C2F200010EE040F216
:10199000EC110122C2F200010125012706E040F20C
:1019A000E8110022C2F200010025002723685B6ACB
:1019B000B1F9001093FBF1F140F23833C2F20003A9
:1019C000196040F2EE13C2F2000323F810104FF03A
:1019D00090400121FEF792FD4FF0904002212A46EF
:1019E000FEF78CFD4FF0904080210122FEF786FD2E
:1019F0004FF090404FF480710122FEF77FFD378059
:101A000020680021416240F27820C2F20000FFF716
:101A10003DFD2046FFF722FD01B0BDE8F0407047D4
:101A2000B0B5044690F83C0001284FF0020008BF12
:101A3000B0BD012584F83C5084F83D00204600F0FC
:101A400059FE00284FF0010009D12068C16821F03B
:101A50004001C160C16821F48041C16000200021C3
:101A600084F83D5084F83C10B0BD00007047000081
:101A700010B5A0B10446406F28B9002084F870006A
:101A8000204600F025F8242060672068016821F0D6
:101A900001010160204600F0D1FF012801D10120A1
:101AA00010BD606A10B1204600F020FF2068416838
:101AB00021F490414160816821F02A018160016830
:101AC00041F001010160204600F084FF10BD0000DC
:101AD00080B586B0006843F60002C4F2010200211E
:101AE0009042CDE90411CDE90211019101D006B077
:101AF00080BD41F24C00C4F20200426942F48042CF
:101B00004261426902F480420092009A026842F007
:101B100001020260006800F00100009000984FF49C
:101B2000C06001900220CDE902010320049007204B
:101B3000059001A94FF09040FEF702FC06B080BD71
:101B40002DE9F04381B00446406F20280BD10E46AA
:101B500000294FF001005AD01746002A57D094F8B8
:101B60007000012803D1022001B0BDE8F0830120FC
:101B700084F870004FF0000921201D46C4F87C90C5
:101B80006067FEF7C1FCA4F85070A4F85270A16819
:101B90000746B1F5805F07D1206900281CBF304699
:101BA0004E46B046064601E04FF0000884F87090BB
:101BB00009E000BF16F8010B21680885B4F852004F
:101BC0000138A4F85200B4F8520088B120468021B0
:101BD00000223B46009501F089F888B9002EE9D132
:101BE00038F8020B21686FF35F2008850026E5E7CF
:101BF0002046402100223B46009501F077F818B1BD
:101C0000032001B0BDE8F08320206067002001B010
:101C1000BDE8F083FEE70000B0B586B0002441F2D5
:101C20004C000594CDE90344CDE90144C4F202001F
:101C30000168002241F001010160006840F2931147
:101C400000F00100009000984FF0904040F2931592
:101C5000FEF754FC0120CDE9020401A94FF09040A9
:101C600001950494FEF76CFB06B0B0BDB0B58EB024
:101C700040F2F814C2F200044FF080400025092120
:101C8000272284E823002046CDE90C55CDE90A55EA
:101C9000CDE90855CDE90655CDE90455CDE9025504
:101CA000CDE90055C4E90325A561FFF753FB4FF4C7
:101CB00080500A900AA92046FFF730FC2046FFF723
:101CC000EBFD07A9204607950995FFF7E1FA60208B
:101CD000CDE9000569462046002202950495FFF7EC
:101CE00079FD2046FFF74AFD0EB0B0BDB0B588B013
:101CF00040F2382440F200400025C2F20004C4F251
:101D000000004FF6FF71C4E900052046CDE90655F5
:101D1000CDE90455CDE90255CDE90055C4E902519C
:101D20002561A561FFF716FB072003905020049062
:101D30000220059003A920460795FFF771FE202099
:101D40000090694620460295FFF7A2FA08B0B0BDA0
:101D5000B0B588B040F2782440F60000C2F200042A
:101D6000C4F200000025092140F69F7284E8230098
:101D700020460795CDE90555CDE90355CDE9015537
:101D8000C4E90325A561FFF7E5FA4FF480500490FC
:101D900004A92046FFF7C2FB01A92046019503953F
:101DA000FFF776FA08B0B0BD80B540F2B82043F630
:101DB0000001C2F20000C4F2010100234FF00C0C3C
:101DC0004FF4E13280E80E00C0E90333C0E905C3F7
:101DD000C0E907334362FFF74BFE80BDFEE700001A
:101DE0007047000000F0070080F00703042B28BFB5
:101DF00004234FF0FF3C03380CFA03F338BF0020F4
:101E0000994381400CFA00F022EA00000843704731
:101E1000704700002DE9F04141F20004C4F20204D1
:101E2000E2680E469107804613D0E168D8F80000BA
:101E300001F0030181420AD148B1E068D8F80410EA
:101E4000C0F302100130884201D100253AE001259B
:101E500038E0D8F8000003280DD0022819D0012856
:101E600021D12168012301F00202C1F3400183EA7C
:101E70005205D9B926E0216889034FF0010149D400
:101E8000226802F4802381EA9345C2F3804169B954
:101E900018E02168012301F48062C1F3802183EA04
:101EA000922519B90EE00125002159B1E168D8F851
:101EB000042021F073016FF00F0303EB02120843BB
:101EC0001043E06015B12846BDE8F081206820F09D
:101ED00080602060FEF718FB074600BF2068000105
:101EE00005D5FEF711FBC01B0328F7D30325002DF2
:101EF000E9D1012E12D02EBB206948F2FF01CFF6A6
:101F0000FD710140D8E902200023CFF6FE7303EAF9
:101F1000403027E000250029C8D1D3E748F2FF016F
:101F20002069CFF6FF1101F1B4610140D8F810002B
:101F30000023CFF6E073D8F8082003EB00506FF3CE
:101F400014000FE0206948F2FF01CFF6FF110140B5
:101F5000D8F814004FF07E43D8F8082003EB006057
:101F600000F07E4041EA022108432061206840F0F1
:101F700080602060FEF7C8FA064600BF20680001B6
:101F800005D4FEF7C1FA801B0328F7D30325002DE3
:101F900099D1D8F818002169084320612846BDE886
:101FA000F08100002DE9F04141F20004C4F2020486
:101FB000E2680E469107804613D0E168D8F8000029
:101FC00001F0030181420AD148B1E068D8F8041059
:101FD000C0F302100130884201D100253AE001250A
:101FE00038E0D8F80000032817D002280BD00128C9
:101FF00021D12168012301F00202C1F3400183EAEB
:102000005205D9B926E02168012301F48062C1F3A9
:10201000802183EA922589B91CE0216889034FF069
:1020200001016AD4226802F4802381EA9345C2F355
:10203000804119B90EE00125002159B1E168D8F8B5
:10204000042021F073016FF00F0303EB0212084329
:102050001043E06015B12846BDE8F081206820F00B
:1020600080502060FEF750FA074600BF20688000CD
:1020700005D5FEF749FAC01B0328F7D30325002D29
:10208000E9D160697EB148F2FF01CFF6FF1101404E
:10209000D8F810004FF07E43D8F8082003EB00601A
:1020A00000F07E400BE048F2FF01CFF6FD710140E9
:1020B000D8E902200023CFF6FE7303EA403041EA5C
:1020C000022108436061206840F080502060FEF7E4
:1020D0001BFA06462068800005D4FEF715FA801B1F
:1020E0000328F7D30325002DB5D1D8F81400616972
:1020F000084360612846BDE8F081002500299DD194
:10210000A8E70000B0B582B041F25805C4F202055C
:1021100029680446C90015D4286840F0805028601A
:10212000286800F0805001900198FEF7B3FA296802
:1021300021F080512960B0F5007F08D0802C0DD9A6
:10214000032015E0FEF7A6FAB0F5007FF6D1812C4A
:102150000DD30120A02C88BF022009E0A4F170005B
:10216000B0FA80F04009802C08BF022000E0002077
:1021700042F20001C4F202010A6822F0070202449E
:102180000A60096801F00701081A18BF012002B0AF
:10219000B0BD00007047000080B588B000210791F5
:1021A000CDE90511CDE903116021CDE9011040F21F
:1021B000F810C2F2000001A90022FFF70BFB08B0E3
:1021C00080BD0000B0B501380024B4EB106F1CBF17
:1021D0000120B0BD4EF21005CEF2000568604FF050
:1021E000FF300F2100F0F4FD0720AC60286020468E
:1021F000B0BD000080B5FEF78DF980BDF0B5B9B077
:1022000028AD28464421FEF716F801AC00262046EA
:1022100088212796CDE92566CDE92366FEF70BF8E0
:10222000102028906020012730902846CDE92E7696
:102230003296FEF753FD0F20CDE9230623A8002197
:10224000CDE925662796FEF70BFC204601970F96F1
:10225000FEF728FA4FF40070FEF7E0F939B0F0BD50
:102260004EF68850CEF2000001684FF0000C41F4A9
:102270007001016041F20001C4F202010A6842F0FB
:1022800001020A60C1F808C00B684FF6FF72CEF673
:10229000F6221A400A604FF48052CA600A6822F49B
:1022A00080220A60C1F818C04FF0006140F8801C1D
:1022B0007047000080B540F27820C2F20000FFF7BE
:1022C00099F980BD80B540F6FF330268C4F200037F
:1022D00098420FDCB0F1804F1ED040F20043C4F2B0
:1022E0000003984218D040F60003C4F2000398425D
:1022F00012D015E040F60043C4F2000398420BD020
:1023000043F20043C4F20103984205D042F6004371
:10231000C4F20103984203D14B6822F070021A43C1
:1023200042F6FF33C4F20103984214DD43F6FF7313
:10233000C4F2010398421ADD44F20003C4F201031F
:1023400098422DD044F60003C4F20103984227D0EE
:1023500044F2004313E040F2FF73C4F200039842DA
:1023600012DCB0F1804F1BD040F2004314E042F683
:102370000043C4F20103984212D043F20043C4F276
:10238000010398420CD00FE040F60003C4F20003B2
:10239000984205D040F60043C4F20003984203D1AE
:1023A000CB6822F440721A434B6922F0800E8A688F
:1023B00043EA0E03D1F800C00360C262A0F180427C
:1023C000A2F596324FEAB222072AC0F828C007D8F1
:1023D000012303FA02F212F0E50F1CBF0969016341
:1023E0000121416180BD000080B501F01F014FF067
:1023F000010CD0F820E00CFA01F32EEA030303628B
:10240000036A02FA01F11943016280BDD0F808C0E5
:1024100011432CF47F4C41EA032141EA0C01816015
:1024200070470000826822F07002114341F00701FA
:1024300081607047B0B5026AA0F1804422F00102C9
:102440000262036A4268D0F818C08D68A4F5963419
:10245000D1F800E023F002034FEAB424072C43EA4A
:1024600005030AD80125A54015F0E50F1FBFCD686B
:1024700023F00C0325F004052B43072C0BD8012572
:1024800005FA04F414F0E50F1FBF22F44072D1E9FD
:10249000054522432A434FF68C74CFF6FE740CEAAE
:1024A000040545EA0E05426085614968416303629F
:1024B000B0BD0000B0B5026A43F2004422F0100241
:1024C0000262036AC4F201044268D0F818C0A04254
:1024D0008C68D1F800E023F0200343EA041305D010
:1024E00042F60044C4F20104A04207D1CC686FF068
:1024F000400523F0C00305EA04142343A0F18044FF
:10250000A4F596344FEAB424072C0DD8012505FA1A
:1025100004F414F0E50F1FBF22F44062D1E9054531
:1025200042EA840242EA850248F6FF44CFF6FF649D
:102530000CEA040545EA0E2542608561496881631D
:102540000362B0BDB0B5026A43F2004422F4807267
:102550000262036AC4F201044268D0F81CC0A042BF
:102560008C68D1F800E023F4007343EA042305D01B
:1025700042F60044C4F20104A04207D1CC6840F204
:10258000FF45240223F44063AC432343A0F180447D
:10259000A4F596344FEAB424072C0DD8012505FA8A
:1025A00004F414F0E50F1FBF22F44052D1E90545B1
:1025B00042EA041242EA05124FF68C74CFF6FE741A
:1025C0000CEA040545EA0E054260C5614968C1632D
:1025D0000362B0BD70B5026AA0F1804522F480525A
:1025E0000262A5F59635D0F820C04268C3690C6830
:1025F000D1F808E04FEAB525072D0AD8012606FADA
:1026000005F515F0E50F1EBF4D6922F4804242EA40
:10261000851248F6FF45CFF6FF652B4043EA0423B9
:102620004260C3612CF40056496846EA0E320164E8
:10263000026270BD70B5026AA0F1804522F480325A
:102640000262A5F59635D0F820C04268436D0C684B
:10265000D1F808E04FEAB525072D0AD8012606FA79
:1026600005F515F0E50F1EBF4D6922F4803242EAF0
:1026700005224FF68F75CFF6FE752B40234342603F
:1026800043652CF40036496846EA0E4281650262D1
:1026900070BD000070B5026AA0F1804522F480127E
:1026A0000262A5F59635D0F820C04268436D0C68EB
:1026B000D1F808E04FEAB525072D0AD8012606FA19
:1026C00005F515F0E50F1EBF4D6922F4802242EAA0
:1026D000852248F6FF75CFF6FF652B4043EA0423B9
:1026E000426043652CF40016496846EA0E52C16503
:1026F000026270BD10B500684FF6887C8268CFF624
:10270000FE7C02EA0C04D1E900E20CF170031340F4
:10271000234343EA0E046FF0030303EB3213032B4E
:10272000846023D8DFE803F002161D24BEF1050FF4
:1027300004BF012010BD026A036A23F00103036293
:102740008369096923F0F00343EA011181610262A0
:10275000002010BD8B680A69194600F011F80020AE
:1027600010BD8B680A69194600F01CF8002010BDE6
:10277000D1E9022C0B696146FFF748FE002010BD2D
:10278000D0F820C0036A23F001030362836923F0B9
:10279000F00343EA02122CF00A031943826101623A
:1027A00070470000036A23F0100303628369D0F8C6
:1027B00020C023F4704343EA02322CF0A00343EA22
:1027C0000111826101627047B0B500F07DF840F2FE
:1027D000B82440F20405C2F20004C2F2000520460B
:1027E000294646220A23FFF7ABF940F6B830FDF739
:1027F00093FD40F24701C2F20001204646220A231F
:10280000FFF79EF940F6B830FDF786FD40F28B01E8
:10281000C2F20001204646220A23FFF791F940F652
:10282000B830FDF779FD40F2CF01C2F20001204639
:1028300046220A23FFF784F940F6B830FDF76CFD15
:1028400040F21311C2F20001204646220A23FFF78C
:1028500077F940F6B830FDF75FFD40F25711C2F24C
:102860000001204646220A23FFF76AF940F6B830F5
:10287000FDF752FD40F29A11C2F2000120464622B5
:102880000A23FFF75DF940F6B830FDF745FD204615
:10289000294646220A23FFF753F940F6B830FDF7E0
:1028A0003BFDB0BD80B54FF0904010210122FDF7F7
:1028B00025FE1220FFF770FC40F2F810C2F2000073
:1028C0000021FFF709F880BD80B54FF0904010213E
:1028D0000022FDF713FE1420FFF75EFC40F2F81013
:1028E000C2F200000021FEF7F7FF80BD80B5416A0B
:1028F000CA070CD18A0715D44A071ED40A0727D461
:10290000CA0630D48A0639D44A0657D541E002684F
:10291000D0F828C0536823F4003343EA0C03536013
:102920008A07E9D50268D0F82CC0536823F48033B5
:1029300043EA0C0353604A07E0D50268D0F830C080
:10294000536823F4802343EA0C0353600A07D7D566
:102950000268D0F834C0536823F4004343EA0C0300
:102960005360CA06CED50268D0F838C0936823F405
:10297000805343EA0C0393608A06C5D50268D0F8F9
:102980003CC0936823F4005343EA0C0393604A0667
:1029900014D50268D0F840C05368BCF5801F23F4FA
:1029A000801343EA0C03536008D1D2F804C0D0F876
:1029B00044E02CF4C00343EA0E035360090658BFF9
:1029C00080BD0168806C4A6822F400221043486090
:1029D00080BD0000B0B582B004460020E067FDF77E
:1029E00093FD21680546096809070BD56FF07E4CF9
:1029F00020464FF4001100222B46CDF800C000F015
:102A000075F978B92068006840070ED56FF07E4CE4
:102A100020464FF4800100222B46CDF800C000F084
:102A200065F910B1032002B0B0BD20206067A06737
:102A3000002084F8700002B0B0BD000070B50446FC
:102A40002269D4E90213006866690A43E1693243E6
:102A5000066846F6F315CEF6FF750A432E4032435C
:102A600002604268102522F440521A43426048F244
:102A70000002A369C4F2000290421CBF266A3343DD
:102A8000866826F430663343836044F6FF73C4F2ED
:102A90000003984218DC44F20043C4F20003984259
:102AA00027D044F60003C4F20003984228D044F62D
:102AB0000043C4F2000398423BD141F28803C4F2C0
:102AC00002031B689B092FE045F20003C4F20003D8
:102AD00098421CD0904221D043F60003C4F2010377
:102AE000984226D141F28803C4F202031B687BA6F8
:102AF0001BE041F28803C4F202031B689B0813E049
:102B000041F28803C4F202031B681B090CE041F286
:102B10008803C4F202031B681B0A05E041F2880324
:102B2000C4F202031B689B0A68A603F0030356F86D
:102B30002350904217D00120B1F5004F27D1082D26
:102B40004FF0000100F2718044F60002C0F2E8127A
:102B5000DFE805F0055A646B5E6B6B6B6200FEF795
:102B600035F842005AE0082D25D842F200410026EF
:102B7000C0F2F401DFE805F0051F271F231F1F1F08
:102B800041000026FEF722F80146E9B93AE0082D97
:102B90004FF0000200F2668042F20041C0F2F40100
:102BA000DFE805F0054F5960536060605700FEF79D
:102BB0000DF801464FE00021012629B922E0002648
:102BC000FEF72CF80146E9B1626802EB420081424F
:102BD0004FF001004BD31303994248D80120082D30
:102BE0004FF0000164D8DFE805F0056346634E63EB
:102BF00063635C00FDF7EAFF47E04FF40041002605
:102C00000029E1D1304632E0FDF7F4FF420005E053
:102C1000FEF704F8420001E04FF48032606802EBF6
:102C20005001B1FBF0F081B20020102907D321F050
:102C30000F02C1F3420123681144D96017E001205B
:102C400015E0FDF7D7FF014605E0FDF7E7FF014678
:102C500001E04FF40041606801EB5001B1FBF0F07E
:102C600082B20020102A26BF2168CA6001200021FC
:102C7000C4E9181170BD0020CFF2244010EB5200BF
:102C80004FF0000106E0FDF7C9FF6268010E000287
:102C900010EB520041F100010023FDF791FA0146CB
:102CA00005E04FF4000000EB5200B0FBF2F13046BB
:102CB0004FF6FF43A1F54072C0F20F039A4202D8CB
:102CC0002268D160D3E70120D1E700BF00000000F7
:102CD00004000000020000000800000001000000E5
:102CE0000400000002000000080000002DE9F0438D
:102CF00081B004460068C0690840401AB0FA80F00C
:102D00004009904234D1DDF8208015460E469946A0
:102D100008F1010709E000BF2068C0693040801B4E
:102D2000B0FA80F04009A84222D1002FF4D0FDF77C
:102D3000EBFB2168B8F1000F0A681DD0A0EB090079
:102D4000404519D8500744BFC8695FEA0050E3D531
:102D50004FF400600862086820F4D070086088684A
:102D600020F00100886020206067A067E0670DE028
:102D7000002001B0BDE8F08322F4D07008608868BC
:102D800020F00100886020206067A067002084F8A0
:102D90007000032001B0BDE8F0830000FEE70000F2
:102DA000002848BF704700F01F01012202FA01F11C
:102DB0004EF200124009CEF2000242F82010704795
:102DC0004EF60C50CEF200000068C0F302207047AF
:102DD0004EF6145300F00F02CEF2000309011A441C
:102DE00000F16043B0F1FF3FC8BF03F564421170CA
:102DF000704700004EF60C51CEF200010A684FF603
:102E0000FF031A4060F30A2242F0806040F0FD7038
:102E100008607047FDF78CFBFFF7F0F9FEF7FCFE4A
:102E2000FEF764FFFEF794FFFEF720FFFEF7BCFFFE
:102E30004FF09040102101220124FDF75FFB4FF07D
:102E40009040012100220025FDF758FB4FF09040F3
:102E5000022100220226FDF751FB4FF09040802115
:102E60000122FDF74BFB4FF090404FF4807101229F
:102E7000FDF744FB40F27820C2F2000001686FF0D9
:102E800001070F61FEF702FB40F23820C2F200009A
:102E900001680F61FEF7E2FA40F2F810C2F200009A
:102EA00000680321076140F2F410C2F200000580BF
:102EB00040F2EC10C2F20000018040F2EA10C2F2CF
:102EC0000000048040F2E810C2F2000040F2EE1769
:102ED000068040F2B82040F20401C2F20007C2F2BC
:102EE0000000C2F2000146220A233D60BD80FEF7C9
:102EF00027FE40F6B830FDF70FFA00BFFFF7D2FC0F
:102F0000B7F900005128F9DBB7F904005F28F5DCB8
:102F1000FFF75AFCF2E702E008C8121F08C1002AB6
:102F2000FAD170477047002001E001C1121F002A4A
:102F3000FBD1704700000000000000000102030404
:102F4000060708090000000001020304A086010032
:102F5000400D0300801A060000350C0040420F00AF
:102F600080841E0000093D0000127A000024F40055
:102F700000366E010048E801006CDC02A02F00085A
:102F800000000020E8010000B00200082030000826
:102F9000E801002058050000262F0008000000006E
:102FA000401500093D002335503832355333303059
:102FB0002334503134370B30073350313630300B37
:102FC0005005325032300B4005315035370A50042D
:102FD00030503115230D0A436005313532304460DD
:102FE00004323430447233440004353136374403FC
:102FF0005F30364403213232CC032A3230448631EA
:103000001052337200055E33503939439552110125
:103010001201040005001000000000000000000084
:040000050800018965
:00000001FF
