:020000040800F2
:10000000980400209D010008871100088311000852
:1000100085110008D50200084519000800000000FD
:1000200000000000000000000000000001150008B2
:10003000D702000800000000BF12000803150008E6
:10004000B7010008B7010008B7010008B7010008B0
:10005000B7010008B7010008B7010008B7010008A0
:10006000B7010008B7010008B7010008B701000890
:10007000B7010008B7010008B7010008B701000880
:10008000B7010008B7010008B7010008B701000870
:10009000B7010008B7010008B7010008B701000860
:1000A000B7010008B7010008B7010008B701000850
:1000B000B7010008B7010008B7010008B701000840
:1000C000B7010008B7010008B7010008B701000830
:1000D000B7010008B7010008B7010008B701000820
:1000E000B7010008B7010008B7010008B701000810
:1000F000B7010008B7010008B7010008B701000800
:10010000B7010008B7010008B7010008B7010008EF
:10011000B7010008B7010008B7010008B7010008DF
:10012000B7010008B7010008B7010008B7010008CF
:10013000B7010008B7010008B7010008B7010008BF
:10014000B7010008B7010008B7010008B7010008AF
:10015000B7010008B7010008B7010008B70100089F
:10016000B7010008B7010008B7010008B70100088F
:10017000B7010008B7010008B7010008000000003F
:10018000B7010008B7010008DFF80CD000F090F8C4
:10019000004800476D190008980400200648804771
:1001A00006480047FEE7FEE7FEE7FEE7FEE7FEE75C
:1001B000FEE7FEE7FEE7FEE771150008890100088B
:1001C0002DE9F05F0546002092469B46884606468C
:1001D000814640241BE0284641464746224600F01F
:1001E00056F853465A46C01A914110D31146184644
:1001F000224600F03DF82D1A67EB01084F462246D3
:100200000120002100F034F817EB00094E41201EB8
:10021000A4F10104DFDC484631462A46434600F09B
:1002200000B830BCBDE8C09F40EA01039B0703D083
:1002300009E008C9121F08C0042AFAD203E011F825
:10024000013B00F8013B521EF9D27047D2B201E0E7
:1002500000F8012B491EFBD270470022F6E710B5CB
:1002600013460A4604461946FFF7F0FF204610BD24
:10027000202A04DB203A00FA02F100207047914066
:10028000C2F1200320FA03F3194390407047202A5B
:1002900004DB203A21FA02F00021704721FA02F330
:1002A000D040C2F120029140084319467047000037
:1002B000064C074D06E0E06840F0010394E80700B3
:1002C00098471034AC42F6D3FFF762FF081B0008D2
:1002D000281B0008FEE77047B0B5044600F0DCF8C4
:1002E00005468F48611C406818BF044400F0D4F8EC
:1002F000401BA042FAD3B0BD2DE9FC4F5C4A072455
:100300004FF0000B4FF0010A4FF003094FF00008C7
:10031000904200F1384208BF06244FEAB223062B70
:1003200038BF4FEAB224009400260B6833FA06F473
:1003300008BF00F0A7B80AFA06F413EA040C00F0AC
:1003400090804F68122F15D80AFA07F313F0061F92
:1003500010D0D0F808E0CD6809FA08F32EEA0303BC
:1003600005FA08F52B4383603B094568B340A54374
:100370002B43436007F00303032B09D1C7F3C005E8
:1003800005FA06FEC56A25EA040444EA0E04C462BE
:10039000C5688A6809FA08F4A54302FA08F22A43F4
:1003A000C26047F01002122A13D16FF003050BF060
:1003B0001C020F2305EA5605934005442F6A27EADD
:1003C00003030F6907FA02F21A432A624F6807F023
:1003D0000303E243046803FA08F322401A4302606D
:1003E000FA003ED5254B234F26F003041A683C44FF
:1003F00042F001021A601A680F2302F00102019212
:100400000BF00C02019D93401D4DAE46655925EA47
:100410000303009D05FA02F21A4344F80E203A68DD
:100420004C6842EA0C03E50358BF22EA0C033B6028
:10043000A5037A6842EA0C0358BF22EA0C037B60EA
:10044000E502BA680C4D42EA0C0358BF22EA0C03DD
:10045000BB60A4022A6842EA0C0358BF22EA0C03DC
:100460002B600BF1040B08F1020801365DE700BFB9
:1004700000180048000401400C04014060100240D4
:1004800008FCFFFF1CBCBDE8E08F1823002A08BF52
:100490002823C1507047000005480068704700BF1E
:1004A0001F48034940680A6810440860704700BF4D
:1004B0009000002080B50948016841F48071016016
:1004C000032000F063F8002000F00AF808B10120D2
:1004D00080BD00F027F8002080BD00BF0020024052
:1004E00070B50F4E04467068B0B14FF47A71B1FB2D
:1004F000F0F046490968B1FBF0F000F08BFD0125F2
:100500000F2C0AD848B94FF0FF30214600220025B1
:1005100000F020F8346000E00125284670BD00BFDF
:100520000000002082B00A48816841F0010181602A
:10053000816801F0010101910199016841F0805148
:100540000160006800F080500090009802B0704791
:100550005810024070B5134B4FF0FF351B68C3F3C2
:100560000223DC1E83F0070338BF002405FA04F6DB
:10057000B243042B28BF042305FA03F39943A14097
:100580001143BDE8704001F0DFB900BF05494FF6E7
:10059000FF030A681A4060F30A2203481043086008
:1005A000704700BF0CED00E00000FA05DC49B0F533
:1005B000007F0A6802F4C0621DD1B2F5007F22D02C
:1005C0000868012262F34A20322208600F4800685E
:1005D00050430F4AB0FBF2F00130421E4B69824299
:1005E00003D213F480601046F7D14869400544BF38
:1005F0000320704707E0B2F5806F04D0086802223C
:1006000062F34A2008600020704700BF0800002005
:1006100040420F00C248006800F4C060704700BF4D
:100620002DE9FC4704464078BC4F00071ED5606E9C
:100630004FEAB051032908D8DFE801F002090F138F
:10064000201D002100F03CFE03E001260FE000F039
:1006500024FE064658B9606E03E0396841F48031E3
:100660003960F96F21F440010843F867002660788B
:10067000C00601D4B24628E0A06E4FEA30600328DD
:1006800009D8B246DFE800F0020C1015201D002149
:1006900000F016FE06E04FF0010A4FF0010815E0E9
:1006A00000F0FBFD824604E03868B24640F480303A
:1006B0003860BAF1000FD04608D1A06EF96F4FF044
:1006C000000A21F040710843F867B046A07880071F
:1006D00001D4C24651E0F86C10F0805908D1F86C92
:1006E00040F08050F864F86C00F080500190019860
:1006F0008B4D286840F480702860FFF7CDFE0646D9
:100700002868C00507D4FFF7C7FE801B0228F7D969
:100710004FF0030A2AE0BAF1000F27D1D7F884007E
:1007200010F4407018D0D4F88410884211D0D7F853
:100730008400D7F8841041F4803120F44070C7F869
:100740008410D7F8841021F48031C7F88410C7F8DA
:100750008400C00740F0D080D4F88400D7F884101B
:10076000C24621F440710843C7F88400B9F1000F74
:1007700003D1F86C20F08050F8642068C10705D0E0
:10078000A16BFA6F22F003021143F967810705D5C7
:10079000E16BFA6F22F00C021143F967410705D5AE
:1007A000216CFA6F22F030021143F967010705D579
:1007B000616CFA6F22F0C0021143F967C10605D5DA
:1007C000A16CFA6F22F440721143F967810605D5D6
:1007D000E16CFA6F22F440621143F967810505D597
:1007E000E16DFA6F22F440221143F967410505D506
:1007F000216EFA6F22F440121143F967410605D5C4
:10080000216DFA6F22F440521143F967010605D5B4
:10081000616DFA6F22F440421143F967C10505D5B5
:10082000A16DFA6F22F440321143F96781040FD5AC
:10083000E16E00F0C5FC05D0B1F1006F08D100F009
:1008400027FD05E000F00EFD002818BF8246206855
:1008500001030FD5216F00F0B3FC05D0B1F1006F9B
:1008600008D100F015FD05E000F0FCFC002818BFE1
:100870008246206841030FD5616F00F0A1FC05D0CE
:10088000B1F1006F08D100F003FD05E000F0EAFCD3
:10089000002818BF82462068400418D5A06FF96F61
:1008A00021F040510143B0F1005FF96707D0B0F18A
:1008B000805F0CD1201D022100F002FD04E004F154
:1008C0002000022100F072FD002818BF8246206837
:1008D000010405D5E16FFA6F22F080421143F967F8
:1008E000C00306D5D4F88000F96F21F00041084319
:1008F000F867504600F016B8FFF7CEFD064641F205
:1009000088354FF0030AD7F8840080073FF524AFFD
:10091000FFF7C2FD801BA842F5D927E70C10024063
:10092000007000400CBCBDE8F08700002DE9F843E2
:10093000002800F08580444B04468846186800F083
:10094000070088420AD2186820F0070040EA080031
:100950001860186800F00700404571D12068484EC3
:10096000C10736D0606840B102280BD003280ED1F1
:1009700056F8081C89010ED462E056F8081C890755
:1009800009D45DE056F8081C890304D458E056F8F1
:10099000081C490554D531689946354621F00301B4
:1009A000084300F05CFC064641F28837294660683F
:1009B000296801F00C01B1EB800F07D0FFF76CFD47
:1009C000801BB842F2D90320BDE8F88320682E4688
:1009D0004B46810705D5A168326822F0F002114329
:1009E0003160196801F0070141450AD9196821F001
:1009F000070141EA08011960196801F00701414542
:100A00001ED1410705D5E168326822F4E062114346
:100A10003160000706D52069316821F4605141EA50
:100A2000C000306000F030F83168084A00F029FC5E
:100A30001249086006480068BDE8F843FFF750BD5A
:100A40000120BDE8F88300BF00200240AE1A000874
:100A50000000002009480A490A4A00680968C1F3F1
:100A6000022100F009BC00BF04480549054A00689E
:100A70000968C1F3C22100F0FFBB00BF08000020DD
:100A800008100240BE1A000810B523498A68C868D9
:100A900012F00C0205D00C2A1FD100F0030001282F
:100AA0001BD108681F4B000747BF08680009D1F831
:100AB0009400000A002A00F00F0053F82030184676
:100AC00018BF00200C2A21D1C86800F003000228BA
:100AD00009D0032808BF124B06E0042A17D0082AC1
:100AE00017D10F4810BD0D4BC868CA68C9680224E9
:100AF000C2F30622C0F30210C1F341615A43013030
:100B000004EB4101B2FBF0F0B0FBF1F010BD034883
:100B100010BD00200023D5E7001002400024F4009F
:100B200000127A00C81A00082DE9F843002800F0E6
:100B3000DF81DC4E0446B06800F00C09F06800F07C
:100B400003082078C0061CD42078C00759D0B9F11A
:100B5000080F4FD0B9F10C0F08BFB8F1030F49D0FF
:100B60006068B0F5803F07D0B0F5A02F40F0C3819A
:100B7000306840F480203060306840F4803030606D
:100B8000C2E1B9F1000F19D0B9F10C0F08BFB8F1EB
:100B9000010F13D03068A169002900F0708140F086
:100BA000010000F05CFB05463068800700F17681AB
:100BB000FFF772FC00F041FBF6D918E230688007BD
:100BC00003D5A069002800F09381206A31680907E5
:100BD0005ABFD6F894100909316801F0F001884233
:100BE00040F2DD8000F04AFC002840F0818100F0F6
:100BF000D5FAE8E03068800303D56068002800F08B
:100C000077812078800729D5B9F1040F18D0B9F180
:100C10000C0F08BFB8F1020F12D03068E16800294C
:100C200000F0808140F4807000F019FB05463068C8
:100C300040050CD4FFF730FC00F0FFFAF7D9D6E1FD
:100C40003068400503D5E068002800F05181206934
:100C5000716821F0F85141EA006070602078000767
:100C600053D42078400766D4A06A002800F0C181E0
:100C7000022840F0CA80E16AF06800F003028A426C
:100C800040F0E480216B6FF00F0202EB011100F0E5
:100C900070028A4240F0DA80616B00F4FE42B2EBEF
:100CA000012F40F0D380A16B00F40032073918BF48
:100CB00001218A4240F0CA80E16BD34A02EB015124
:100CC00000F4C0026FF314018A4240F0BF80216C2F
:100CD0004FF07E4200F0C06002EB016101F07E4106
:100CE000884240F0B3803068800100F1828100F0DA
:100CF00075FA04463068800100F17B81FFF7CCFB78
:100D0000011B03200229F5D971E1D6F8940061692D
:100D1000002968D040F00100C6F89400FFF7BCFB42
:100D20000546D6F8940080079BD4FFF7B5FB401B1F
:100D30000228F6D9D4E0B06D10F0805808D1B06D1B
:100D400040F08050B065B06D00F080500090009889
:100D5000AC4F3868C0050FD4386840F480703860F4
:100D6000FFF79AFB05463868C00505D4FFF794FBEA
:100D700000F063FAF7D93AE1A068012808D0052805
:100D800040F09280D6F8900040F00400C6F8900041
:100D9000D6F8900040F00100C6F8900092E031686B
:100DA00041F008013160316821F0F0010143316008
:100DB000B9F1000FE169726822F47F4242EA012131
:100DC000716000F09080FFF75FFEB1688A4A00F022
:100DD00058FA8A4908608A480068FFF781FB0028B2
:100DE00040F00581B0E620F00100C6F89400FFF75E
:100DF00053FB0546D6F8940080077FF532AFFFF726
:100E00004BFB00F01AFAF5D9F1E0B9F10C0F6FD0F5
:100E1000306820F080703060306810F0205F03D1BF
:100E2000F06820F00300F060F06879490840F06055
:100E3000FFF732FB04463068800140F1DA80FFF7AB
:100E40002BFB011B03200329F5D3D0E0B9F10C0FD4
:100E50004ED0306840014BD43068C00048D4306870
:100E600020F0807000F0FBF905463068800140F109
:100E70008F80FFF711FB00F0E0F9F6D9B7E020F022
:100E8000010000F0ECF90546306880077FF55CAEA4
:100E9000FFF702FB00F0D1F9F6D9A8E000F07EF9E7
:100EA00052E600BF00100240D6F89010002821F052
:100EB0000101C6F89010D6F8901021F00401C6F890
:100EC00090103ED0FFF7E8FA054641F28837D6F891
:100ED0009000800745D4FFF7DFFA401BB842F6D9EF
:100EE0000320BDE8F88300F0C9FA00283FF46BAF97
:100EF0000120BDE8F883316821F480313160316828
:100F000021F480213160A8B3FFF7C6FA05463068A6
:100F100080033FF576AEFFF7BFFA411B032064293B
:100F2000F5D964E020F4807000F099F90546306846
:100F300040057FF593AEFFF7AFFA00F07EF9F6D9E2
:100F400055E0FFF7A9FA054641F28837D6F8900038
:100F5000800706D5FFF7A0FA411B0320B942F5D957
:100F600045E0B8F1000F7FF47FAEB06D20F0805007
:100F7000B06579E6FFF790FA0546306880037FF5A3
:100F800040AEFFF789FA411B03206429F5D92EE012
:100F900004F12C036FF00F051C4F0FCB05EB011173
:100FA000F5683D4028430843E16B40EA0220164AB9
:100FB00002EB01516FF314010843216C4FF07E44A2
:100FC00004EB016101F07E41084302F5F01101EAF2
:100FD00043310843F06000F001F9044630688001B5
:100FE00007D4FFF759FA011B03200229F6D9BDE8FF
:100FF000F8830020BDE8F883AE1A0008080000203E
:1010000000000020007000400000E0FF8C809DF98F
:10101000FFFFEEFE411E0020B0EB116F1CBF012050
:101020007047044AF023516003490B700721906018
:101030001160704710E000E023ED00E010B540B112
:101040000446406F08B900F0C3F800F09DF801288D
:1010500001D1012010BD606A08B100F0FDF800F078
:10106000E5F821F02A01816000F000F9BDE81040A8
:1010700000F0F8BAFEB500681349884222D113483F
:10108000416941F480414161416901F4804101912C
:101090000199016841F001010160006800F0010060
:1010A0000090072005900320049000200390022068
:1010B00002904FF4C0600190009801A94FF0904059
:1010C000FFF71AF906B080BD003801404C1002400D
:1010D0002DE9F8430446406F202807D10E4641B160
:1010E000174632B194F87000012805D10220BDE8FE
:1010F000F8830120BDE8F8834FF0000901201D4668
:10110000C4F87C9084F8700021206067FFF7C4F970
:10111000A4F852708046A4F85070A068B0F5805FC3
:1011200001D1206908B1002701E03746002684F884
:101130007090B4F85200B8B12046802100F071F8E8
:10114000B8B926B116F8010B2168088506E037F812
:10115000021B206800266FF35F210185B4F852005E
:101160000138A4F85200E4E72046402100F059F885
:1011700010B10320BDE8F883202060670020BDE89F
:10118000F883FEE7FEE77047242060672068016867
:1011900021F001010160204600F08ABA306840F079
:1011A00008003060D4E90701326822F0F0021143F0
:1011B0003160716821F47F4141EA0020706070471E
:1011C000FA6F22F040620A43B1F1806FFA6770470C
:1011D000002084F870002046FFF74CBF306840F0D4
:1011E00080703060F06840F08070F060FFF754B9B4
:1011F00061686FF00F0202EB0111FA6822F07302CE
:1012000010430843F86070476068F968C1F3021141
:1012100001318142704700222B460090204600F0A9
:1012200053BB00224346009500F04EBB2068416846
:1012300021F49041416081687047411B03200229DD
:1012400070470840A16840EA01204FF07E4101EB61
:10125000026101F07E417047204600F0AFB9306076
:10126000FFF71AB9201D012100F02AB8016841F0EA
:101270000101016020467047515C01F01F01C84028
:101280007047C1F30311515C01F01F01C840704762
:10129000396841F480113960704704F12000002161
:1012A00000F084B821F4D0710160816821F001015F
:1012B00081602020606770473860FFF7EDB87047A5
:1012C000F8B5BC4F04460D46F86880070AD0F868A8
:1012D000216800F00300884237D1B0B3FFF794FFD4
:1012E00013D032E02068032807D002282AD0012832
:1012F0002BD13968890706D427E03968890302D4DD
:101300003968490321D5FFF773FF386820F0806002
:10131000FFF7D2FF06463868000105D5FFF7BCF895
:10132000801B0228F7D936E0012D10D0F5B9D4E999
:101330000201514A4F4B02EA41313A691A4042EAEE
:10134000002018E039684905DDD40120F8BD48487F
:101350003969226900F1B4600840A16840EA0120BF
:10136000114901EB02516FF3140104E0386940495F
:101370006269FFF766FF08433861386840F08060B3
:10138000FFF79AFF05463868000106D4FFF784F896
:10139000401B0228F7D90320F8BDA069396908432A
:1013A00038610020F8BD00BF0000E0FFF8B5814FB4
:1013B00004460D46F86880070AD0F868216800F0F6
:1013C0000300884219D1C0B1FFF71EFF15D118E004
:1013D000206803280BD0022805D001280DD13968D8
:1013E00089070AD50BE03968490506D507E0396851
:1013F000890304D43968490301D40120F8BDFFF7FB
:10140000F7FE386820F08050FFF756FF0646386830
:10141000800005D5FFF740F8801B0228F7D91FE0B0
:10142000786925B112492269FFF70BFF08E01149DD
:101430000840D4E9021240EA01200F4901EA423192
:1014400008437861386840F08050FFF735FF054663
:101450003868800006D4FFF71FF8401B0228F7D930
:101460000320F8BD60697969084378610020F8BD00
:10147000FF80FFF9FF80FDFF0000FEFFBCB51E4DA1
:1014800004462868C0000FD4286840F080502860C7
:10149000286800F0805001900198FFF7BBF8296898
:1014A00021F08051296001E0FFF7B4F8B0F5007F2A
:1014B00006D1812C08D30120A02C88BF02200DE08A
:1014C000802C03D9032009E0002007E0A4F170007C
:1014D000B0FA80F04009802C08BF022007490A6852
:1014E00022F0070202440A60096801F00701081AA5
:1014F00018BF0120BCBD00BF5810024000200240B0
:101500007047FEF7CDBF2DE9F041B8B027AE4021BE
:10151000301DFEF7A2FE0DF1880814214046FEF7AB
:101520009CFE6D4688212846FEF797FE0027602026
:101530000124CDE92E70102031972D94279030464C
:10154000FFF7F2FA0F2000212397CDE924772697A1
:1015500022904046FFF7EAF928460E970094FFF7DD
:101560005FF84FF40070FFF721F838B0BDE8F08164
:1015700010B50F48104CD0F8801041F47001C0F83D
:1015800080100C490A6842F001020A6000228A6059
:101590000B6823400B604FF48053CB600B6823F43F
:1015A00080230B608A614FF00061016010BD00BFB5
:1015B00008ED00E000100240FFFFF6EA10B5416AB6
:1015C000CA0706D00268836A546824F400342343AF
:1015D00053608A0706D50268C36A546824F48034CD
:1015E000234353604A0706D50268036B546824F40A
:1015F0008024234353600A0706D50268436B54686E
:1016000024F4004423435360CA0606D50268836B62
:10161000946824F48054234393608A0606D50268B4
:10162000C36B946824F40054234393604A060FD597
:101630000268036C546824F480141C43B3F5801FC3
:10164000546005D1436C546824F4C00423435360B0
:10165000090606D50168806C4A6822F4002210430E
:10166000486010BDBCB504460020E067FEF714FFDB
:10167000054620680168090707D56FF07E404FF4E2
:101680000011FFF7C8FD50B920680068400708D571
:101690006FF07E404FF48001FFF7BDFD08B10320DD
:1016A000BCBD20210020616784F87000A167BCBD2B
:1016B00070B504460068734E04F108030ECB05684C
:1016C00035406669194341EA0603E1690B432B4340
:1016D0000360436823F440531A4342606A4AA36993
:1016E00090421CBF256A2B43856825F430652B4347
:1016F0008360664B984212D0654B984213D0654B7D
:10170000984214D0644B984215D0904217D0634B46
:10171000984240F04D80624B63A51B6813E0604B1C
:101720001B689B080EE05E4B1B681B090AE05C4BC4
:101730001B689B0906E05A4B1B681B0A02E0584BCA
:101740001B689B0A574D03F0030355F82350904242
:1017500011D00120B1F5004F1CD1082D00F28D8071
:101760005649DFE805F005434C8A468A8A8A4A00D2
:10177000FFF770F93FE00120082D00F27E804E490E
:10178000DFE805F0057B1F7B187B7B7B1D00FFF7E7
:1017900061F911E0082D00F270804749DFE805F09B
:1017A000053C456D3F6D6D6D4300FFF753F938E023
:1017B0001025CCE7FFF768F9014610B93FE04FF478
:1017C0000041626802EB4200814255D3B1EB023F17
:1017D00052D80120082D50D8DFE805F0054F334FCF
:1017E000364F4F4F4300FFF735F92FE0FFF73CF935
:1017F00001E0FFF749F9410001E04FF480316068F2
:1018000001EB5001B1FBF0F04FF6F071014033D025
:10181000C0F34200084310E0FFF726F901E0FFF7AC
:1018200033F9014601E04FF40041606801EB5001DB
:10183000B1FBF0F080B210281ED32168C8600020F0
:101840001BE01F48002104E0FFF71EF96268010E4B
:10185000000210EB520041F100010023FEF7B0FC42
:1018600005E04FF4000000EB5200B0FBF2F0154A27
:10187000A0F540719142E0D901200021C4E918117E
:1018800070BD00BFF369FFEF0080004000440040DE
:1018900000480040004C004000500040003801402B
:1018A00088100240F81A000801000000040000003F
:1018B00002000000080000000024F4000048E801D5
:1018C000000024F4FFFC0F002DE9F843DDF8209020
:1018D00004460068984616460F4609F10105C1699D
:1018E0003940C91BB1FA81F14909B1421BD1002D20
:1018F000F5D0FEF7D1FDA0EB0802206801684A454B
:1019000014D8B9F1000F11D04907E8D5C16909050C
:10191000E5D54FF4006101620168FFF7C3FCA067E1
:1019200004F17C0006E00020BDE8F883FFF7BAFC74
:1019300004F17800002184F8701020210160032058
:10194000BDE8F883FEE7000010B5074C00F00F0378
:10195000B0F1FF3F034A2344C8BF83180801187041
:1019600010BD00BF00E400E014ED00E0A4B00FAC37
:1019700027A13A222046FEF757FC01AD33A13622BB
:101980002846FEF751FCFEF795FDFFF7BCFD00274A
:101990003C48002220262397016841F001010160A4
:1019A0002021006800F001001E901E984FF090402A
:1019B000FEF76BFD0120CDE92177CDE91F601FA95E
:1019C0004FF09040FEF798FC2F4E0C202F4A4FF41A
:1019D000E131C6E904703046C6E90021C6E9027764
:1019E000C6E90677C6E90877FFF728FB304629469F
:1019F00035220A23FFF76CFB4FF4FA60FEF76CFC0C
:101A00003046214639220A23FFF762FBFEE700BF7A
:101A10002330503835302331503530302332503177
:101A2000353030233350313330302334503132337A
:101A30003023355031353030233050383530533540
:101A4000303054313030300D0A0000002330503136
:101A5000353030233150313530302332503135304C
:101A6000302333503135303023345031353030234A
:101A70003550313530305335303054313030300D11
:101A80000A0000004C100240100000200038014005
:101A900002E008C8121F08C1002AFAD17047704737
:101AA000002001E001C1121F002AFBD17047000095
:101AB00000000000000001020304060708090000FE
:101AC0000000010203040000A0860100400D030095
:101AD000801A060000350C0040420F0080841E0072
:101AE00000093D0000127A000024F40000366E0167
:101AF0000048E801006CDC02000000000400000067
:101B00000200000008000000281B00080000002060
:101B100010000000901A0008381B00081000002078
:101B200088040000A01A0008100000000100000056
:081B300000093D000000000067
:040000050800018965
:00000001FF
